{
  "_format": "hh-sol-artifact-1",
  "contractName": "FypherOracleRouter",
  "sourceName": "src/FypherOracleRouter.sol",
  "abi": [
    {
      "inputs": [],
      "stateMutability": "nonpayable",
      "type": "constructor"
    },
    {
      "anonymous": false,
      "inputs": [
        {
          "indexed": true,
          "internalType": "bytes32",
          "name": "marketId",
          "type": "bytes32"
        },
        {
          "indexed": true,
          "internalType": "address",
          "name": "feed",
          "type": "address"
        },
        {
          "indexed": false,
          "internalType": "uint8",
          "name": "feedDecimals",
          "type": "uint8"
        },
        {
          "indexed": false,
          "internalType": "uint32",
          "name": "maxStaleness",
          "type": "uint32"
        },
        {
          "indexed": false,
          "internalType": "bool",
          "name": "active",
          "type": "bool"
        }
      ],
      "name": "MarketOracleConfigured",
      "type": "event"
    },
    {
      "anonymous": false,
      "inputs": [
        {
          "indexed": true,
          "internalType": "address",
          "name": "previousOwner",
          "type": "address"
        },
        {
          "indexed": true,
          "internalType": "address",
          "name": "nextOwner",
          "type": "address"
        }
      ],
      "name": "OwnerUpdated",
      "type": "event"
    },
    {
      "anonymous": false,
      "inputs": [
        {
          "indexed": false,
          "internalType": "bool",
          "name": "paused",
          "type": "bool"
        }
      ],
      "name": "Paused",
      "type": "event"
    },
    {
      "inputs": [
        {
          "internalType": "bytes32",
          "name": "marketId",
          "type": "bytes32"
        },
        {
          "internalType": "address",
          "name": "feed",
          "type": "address"
        },
        {
          "internalType": "uint8",
          "name": "feedDecimals",
          "type": "uint8"
        },
        {
          "internalType": "uint32",
          "name": "maxStaleness",
          "type": "uint32"
        },
        {
          "internalType": "bool",
          "name": "active",
          "type": "bool"
        }
      ],
      "name": "configureMarketOracle",
      "outputs": [],
      "stateMutability": "nonpayable",
      "type": "function"
    },
    {
      "inputs": [
        {
          "internalType": "bytes32",
          "name": "marketId",
          "type": "bytes32"
        }
      ],
      "name": "getPriceE18",
      "outputs": [
        {
          "internalType": "uint256",
          "name": "",
          "type": "uint256"
        }
      ],
      "stateMutability": "view",
      "type": "function"
    },
    {
      "inputs": [
        {
          "internalType": "bytes32",
          "name": "",
          "type": "bytes32"
        }
      ],
      "name": "marketOracles",
      "outputs": [
        {
          "internalType": "address",
          "name": "feed",
          "type": "address"
        },
        {
          "internalType": "uint8",
          "name": "feedDecimals",
          "type": "uint8"
        },
        {
          "internalType": "uint32",
          "name": "maxStaleness",
          "type": "uint32"
        },
        {
          "internalType": "bool",
          "name": "active",
          "type": "bool"
        }
      ],
      "stateMutability": "view",
      "type": "function"
    },
    {
      "inputs": [],
      "name": "owner",
      "outputs": [
        {
          "internalType": "address",
          "name": "",
          "type": "address"
        }
      ],
      "stateMutability": "view",
      "type": "function"
    },
    {
      "inputs": [],
      "name": "paused",
      "outputs": [
        {
          "internalType": "bool",
          "name": "",
          "type": "bool"
        }
      ],
      "stateMutability": "view",
      "type": "function"
    },
    {
      "inputs": [
        {
          "internalType": "address",
          "name": "nextOwner",
          "type": "address"
        }
      ],
      "name": "setOwner",
      "outputs": [],
      "stateMutability": "nonpayable",
      "type": "function"
    },
    {
      "inputs": [
        {
          "internalType": "bool",
          "name": "nextPaused",
          "type": "bool"
        }
      ],
      "name": "setPaused",
      "outputs": [],
      "stateMutability": "nonpayable",
      "type": "function"
    }
  ],
  "bytecode": "0x608060405234801561001057600080fd5b50336000806101000a81548173ffffffffffffffffffffffffffffffffffffffff021916908373ffffffffffffffffffffffffffffffffffffffff1602179055503373ffffffffffffffffffffffffffffffffffffffff16600073ffffffffffffffffffffffffffffffffffffffff167f8292fce18fa69edf4db7b94ea2e58241df0ae57f97e0a6c9b29067028bf92d7660405160405180910390a36116f4806100bb6000396000f3fe608060405234801561001057600080fd5b506004361061007d5760003560e01c80635c975abb1161005b5780635c975abb146100d65780638da5cb5b146100f4578063d9f2af5214610112578063e5a5064b146101425761007d565b806313af40351461008257806316c38b3c1461009e57806323d6baca146100ba575b600080fd5b61009c60048036038101906100979190610b97565b610175565b005b6100b860048036038101906100b39190610bfc565b61032f565b005b6100d460048036038101906100cf9190610cd4565b610411565b005b6100de6106b8565b6040516100eb9190610d5e565b60405180910390f35b6100fc6106cb565b6040516101099190610d88565b60405180910390f35b61012c60048036038101906101279190610da3565b6106ef565b6040516101399190610de9565b60405180910390f35b61015c60048036038101906101579190610da3565b610a41565b60405161016c9493929190610e22565b60405180910390f35b60008054906101000a900473ffffffffffffffffffffffffffffffffffffffff1673ffffffffffffffffffffffffffffffffffffffff163373ffffffffffffffffffffffffffffffffffffffff1614610203576040517f08c379a00000000000000000000000000000000000000000000000000000000081526004016101fa90610ec4565b60405180910390fd5b600073ffffffffffffffffffffffffffffffffffffffff168173ffffffffffffffffffffffffffffffffffffffff1603610272576040517f08c379a000000000000000000000000000000000000000000000000000000000815260040161026990610f30565b60405180910390fd5b8073ffffffffffffffffffffffffffffffffffffffff1660008054906101000a900473ffffffffffffffffffffffffffffffffffffffff1673ffffffffffffffffffffffffffffffffffffffff167f8292fce18fa69edf4db7b94ea2e58241df0ae57f97e0a6c9b29067028bf92d7660405160405180910390a3806000806101000a81548173ffffffffffffffffffffffffffffffffffffffff021916908373ffffffffffffffffffffffffffffffffffffffff16021790555050565b60008054906101000a900473ffffffffffffffffffffffffffffffffffffffff1673ffffffffffffffffffffffffffffffffffffffff163373ffffffffffffffffffffffffffffffffffffffff16146103bd576040517f08c379a00000000000000000000000000000000000000000000000000000000081526004016103b490610ec4565b60405180910390fd5b80600260006101000a81548160ff0219169083151502179055507f0e2fb031ee032dc02d8011dc50b816eb450cf856abd8261680dac74f72165bd2816040516104069190610d5e565b60405180910390a150565b60008054906101000a900473ffffffffffffffffffffffffffffffffffffffff1673ffffffffffffffffffffffffffffffffffffffff163373ffffffffffffffffffffffffffffffffffffffff161461049f576040517f08c379a000000000000000000000000000000000000000000000000000000000815260040161049690610ec4565b60405180910390fd5b600073ffffffffffffffffffffffffffffffffffffffff168473ffffffffffffffffffffffffffffffffffffffff160361050e576040517f08c379a000000000000000000000000000000000000000000000000000000000815260040161050590610f9c565b60405180910390fd5b60008263ffffffff1611610557576040517f08c379a000000000000000000000000000000000000000000000000000000000815260040161054e90611008565b60405180910390fd5b60405180608001604052808573ffffffffffffffffffffffffffffffffffffffff1681526020018460ff1681526020018363ffffffff1681526020018215158152506001600087815260200190815260200160002060008201518160000160006101000a81548173ffffffffffffffffffffffffffffffffffffffff021916908373ffffffffffffffffffffffffffffffffffffffff16021790555060208201518160000160146101000a81548160ff021916908360ff16021790555060408201518160000160156101000a81548163ffffffff021916908363ffffffff16021790555060608201518160000160196101000a81548160ff0219169083151502179055509050508373ffffffffffffffffffffffffffffffffffffffff16857f767ea1963d753dc73e4efa0a8d5e879706c4d18262aac81c8cc0c9b405587fdd8585856040516106a993929190611028565b60405180910390a35050505050565b600260009054906101000a900460ff1681565b60008054906101000a900473ffffffffffffffffffffffffffffffffffffffff1681565b6000600260009054906101000a900460ff1615610741576040517f08c379a0000000000000000000000000000000000000000000000000000000008152600401610738906110ab565b60405180910390fd5b6000600160008481526020019081526020016000206040518060800160405290816000820160009054906101000a900473ffffffffffffffffffffffffffffffffffffffff1673ffffffffffffffffffffffffffffffffffffffff1673ffffffffffffffffffffffffffffffffffffffff1681526020016000820160149054906101000a900460ff1660ff1660ff1681526020016000820160159054906101000a900463ffffffff1663ffffffff1663ffffffff1681526020016000820160199054906101000a900460ff1615151515815250509050806060015161085b576040517f08c379a000000000000000000000000000000000000000000000000000000000815260040161085290611117565b60405180910390fd5b600073ffffffffffffffffffffffffffffffffffffffff16816000015173ffffffffffffffffffffffffffffffffffffffff16036108ce576040517f08c379a00000000000000000000000000000000000000000000000000000000081526004016108c590611183565b60405180910390fd5b600080826000015173ffffffffffffffffffffffffffffffffffffffff1663feaf968c6040518163ffffffff1660e01b815260040160a060405180830381865afa158015610920573d6000803e3d6000fd5b505050506040513d601f19601f820116820180604052508101906109449190611247565b509350509250506000821361098e576040517f08c379a00000000000000000000000000000000000000000000000000000000081526004016109859061130e565b60405180910390fd5b600081116109d1576040517f08c379a00000000000000000000000000000000000000000000000000000000081526004016109c89061137a565b60405180910390fd5b826040015163ffffffff1681426109e891906113c9565b1115610a29576040517f08c379a0000000000000000000000000000000000000000000000000000000008152600401610a2090611449565b60405180910390fd5b610a37828460200151610abb565b9350505050919050565b60016020528060005260406000206000915090508060000160009054906101000a900473ffffffffffffffffffffffffffffffffffffffff16908060000160149054906101000a900460ff16908060000160159054906101000a900463ffffffff16908060000160199054906101000a900460ff16905084565b600060128260ff1603610ad057829050610b2e565b60128260ff161015610b0757816012610ae99190611469565b600a610af591906115d1565b83610b00919061161c565b9050610b2e565b601282610b149190611469565b600a610b2091906115d1565b83610b2b919061168d565b90505b92915050565b600080fd5b600073ffffffffffffffffffffffffffffffffffffffff82169050919050565b6000610b6482610b39565b9050919050565b610b7481610b59565b8114610b7f57600080fd5b50565b600081359050610b9181610b6b565b92915050565b600060208284031215610bad57610bac610b34565b5b6000610bbb84828501610b82565b91505092915050565b60008115159050919050565b610bd981610bc4565b8114610be457600080fd5b50565b600081359050610bf681610bd0565b92915050565b600060208284031215610c1257610c11610b34565b5b6000610c2084828501610be7565b91505092915050565b6000819050919050565b610c3c81610c29565b8114610c4757600080fd5b50565b600081359050610c5981610c33565b92915050565b600060ff82169050919050565b610c7581610c5f565b8114610c8057600080fd5b50565b600081359050610c9281610c6c565b92915050565b600063ffffffff82169050919050565b610cb181610c98565b8114610cbc57600080fd5b50565b600081359050610cce81610ca8565b92915050565b600080600080600060a08688031215610cf057610cef610b34565b5b6000610cfe88828901610c4a565b9550506020610d0f88828901610b82565b9450506040610d2088828901610c83565b9350506060610d3188828901610cbf565b9250506080610d4288828901610be7565b9150509295509295909350565b610d5881610bc4565b82525050565b6000602082019050610d736000830184610d4f565b92915050565b610d8281610b59565b82525050565b6000602082019050610d9d6000830184610d79565b92915050565b600060208284031215610db957610db8610b34565b5b6000610dc784828501610c4a565b91505092915050565b6000819050919050565b610de381610dd0565b82525050565b6000602082019050610dfe6000830184610dda565b92915050565b610e0d81610c5f565b82525050565b610e1c81610c98565b82525050565b6000608082019050610e376000830187610d79565b610e446020830186610e04565b610e516040830185610e13565b610e5e6060830184610d4f565b95945050505050565b600082825260208201905092915050565b7f6e6f74206f776e65720000000000000000000000000000000000000000000000600082015250565b6000610eae600983610e67565b9150610eb982610e78565b602082019050919050565b60006020820190508181036000830152610edd81610ea1565b9050919050565b7f696e76616c6964206f776e657200000000000000000000000000000000000000600082015250565b6000610f1a600d83610e67565b9150610f2582610ee4565b602082019050919050565b60006020820190508181036000830152610f4981610f0d565b9050919050565b7f696e76616c696420666565640000000000000000000000000000000000000000600082015250565b6000610f86600c83610e67565b9150610f9182610f50565b602082019050919050565b60006020820190508181036000830152610fb581610f79565b9050919050565b7f696e76616c6964207374616c656e657373000000000000000000000000000000600082015250565b6000610ff2601183610e67565b9150610ffd82610fbc565b602082019050919050565b6000602082019050818103600083015261102181610fe5565b9050919050565b600060608201905061103d6000830186610e04565b61104a6020830185610e13565b6110576040830184610d4f565b949350505050565b7f6f7261636c652070617573656400000000000000000000000000000000000000600082015250565b6000611095600d83610e67565b91506110a08261105f565b602082019050919050565b600060208201905081810360008301526110c481611088565b9050919050565b7f6f7261636c6520696e6163746976650000000000000000000000000000000000600082015250565b6000611101600f83610e67565b915061110c826110cb565b602082019050919050565b60006020820190508181036000830152611130816110f4565b9050919050565b7f6f7261636c65206d697373696e67000000000000000000000000000000000000600082015250565b600061116d600e83610e67565b915061117882611137565b602082019050919050565b6000602082019050818103600083015261119c81611160565b9050919050565b600069ffffffffffffffffffff82169050919050565b6111c2816111a3565b81146111cd57600080fd5b50565b6000815190506111df816111b9565b92915050565b6000819050919050565b6111f8816111e5565b811461120357600080fd5b50565b600081519050611215816111ef565b92915050565b61122481610dd0565b811461122f57600080fd5b50565b6000815190506112418161121b565b92915050565b600080600080600060a0868803121561126357611262610b34565b5b6000611271888289016111d0565b955050602061128288828901611206565b945050604061129388828901611232565b93505060606112a488828901611232565b92505060806112b5888289016111d0565b9150509295509295909350565b7f696e76616c6964206f7261636c65207072696365000000000000000000000000600082015250565b60006112f8601483610e67565b9150611303826112c2565b602082019050919050565b60006020820190508181036000830152611327816112eb565b9050919050565b7f6f7261636c6520726f756e64206d697373696e67000000000000000000000000600082015250565b6000611364601483610e67565b915061136f8261132e565b602082019050919050565b6000602082019050818103600083015261139381611357565b9050919050565b7f4e487b7100000000000000000000000000000000000000000000000000000000600052601160045260246000fd5b60006113d482610dd0565b91506113df83610dd0565b92508282039050818111156113f7576113f661139a565b5b92915050565b7f7374616c65206f7261636c652070726963650000000000000000000000000000600082015250565b6000611433601283610e67565b915061143e826113fd565b602082019050919050565b6000602082019050818103600083015261146281611426565b9050919050565b600061147482610c5f565b915061147f83610c5f565b9250828203905060ff8111156114985761149761139a565b5b92915050565b60008160011c9050919050565b6000808291508390505b60018511156114f5578086048111156114d1576114d061139a565b5b60018516156114e05780820291505b80810290506114ee8561149e565b94506114b5565b94509492505050565b60008261150e57600190506115ca565b8161151c57600090506115ca565b8160018114611532576002811461153c5761156b565b60019150506115ca565b60ff84111561154e5761154d61139a565b5b8360020a9150848211156115655761156461139a565b5b506115ca565b5060208310610133831016604e8410600b84101617156115a05782820a90508381111561159b5761159a61139a565b5b6115ca565b6115ad84848460016114ab565b925090508184048111156115c4576115c361139a565b5b81810290505b9392505050565b60006115dc82610dd0565b91506115e783610c5f565b92506116147fffffffffffffffffffffffffffffffffffffffffffffffffffffffffffffffff84846114fe565b905092915050565b600061162782610dd0565b915061163283610dd0565b925082820261164081610dd0565b915082820484148315176116575761165661139a565b5b5092915050565b7f4e487b7100000000000000000000000000000000000000000000000000000000600052601260045260246000fd5b600061169882610dd0565b91506116a383610dd0565b9250826116b3576116b261165e565b5b82820490509291505056fea2646970667358221220fd85e252d822bc660b0d505f4a8a71a261a4180adcdc0ec585e3de298afa738564736f6c63430008140033",
  "linkReferences": {},
  "deployedLinkReferences": {}
}