{
  "_format": "hh-sol-artifact-1",
  "contractName": "MockPriceOracle",
  "sourceName": "test/mocks/MockPriceOracle.sol",
  "abi": [
    {
      "inputs": [
        {
          "internalType": "uint8",
          "name": "decimals_",
          "type": "uint8"
        },
        {
          "internalType": "int256",
          "name": "initialAnswer_",
          "type": "int256"
        }
      ],
      "stateMutability": "nonpayable",
      "type": "constructor"
    },
    {
      "anonymous": false,
      "inputs": [
        {
          "indexed": false,
          "internalType": "int256",
          "name": "answer",
          "type": "int256"
        },
        {
          "indexed": false,
          "internalType": "uint80",
          "name": "roundId",
          "type": "uint80"
        },
        {
          "indexed": false,
          "internalType": "uint256",
          "name": "updatedAt",
          "type": "uint256"
        }
      ],
      "name": "AnswerUpdated",
      "type": "event"
    },
    {
      "inputs": [],
      "name": "decimals",
      "outputs": [
        {
          "internalType": "uint8",
          "name": "",
          "type": "uint8"
        }
      ],
      "stateMutability": "view",
      "type": "function"
    },
    {
      "inputs": [],
      "name": "latestRoundData",
      "outputs": [
        {
          "internalType": "uint80",
          "name": "roundId",
          "type": "uint80"
        },
        {
          "internalType": "int256",
          "name": "answer",
          "type": "int256"
        },
        {
          "internalType": "uint256",
          "name": "startedAt",
          "type": "uint256"
        },
        {
          "internalType": "uint256",
          "name": "updatedAt",
          "type": "uint256"
        },
        {
          "internalType": "uint80",
          "name": "answeredInRound",
          "type": "uint80"
        }
      ],
      "stateMutability": "view",
      "type": "function"
    },
    {
      "inputs": [
        {
          "internalType": "int256",
          "name": "newAnswer",
          "type": "int256"
        }
      ],
      "name": "setLatestAnswer",
      "outputs": [],
      "stateMutability": "nonpayable",
      "type": "function"
    }
  ],
  "bytecode": "0x60a060405234801561001057600080fd5b506040516106b73803806106b783398181016040528101906100329190610181565b8160ff1660808160ff168152505061004f8161005660201b60201c565b50506102b2565b60018060008282829054906101000a900469ffffffffffffffffffff1661007d9190610206565b92506101000a81548169ffffffffffffffffffff021916908369ffffffffffffffffffff16021790555080600081905550426002819055507f5b196ccf306f345de8745dffeaf185f4cafe74a334e2b2466d04c880071533b981600160009054906101000a900469ffffffffffffffffffff166002546040516101029392919061027b565b60405180910390a150565b600080fd5b600060ff82169050919050565b61012881610112565b811461013357600080fd5b50565b6000815190506101458161011f565b92915050565b6000819050919050565b61015e8161014b565b811461016957600080fd5b50565b60008151905061017b81610155565b92915050565b600080604083850312156101985761019761010d565b5b60006101a685828601610136565b92505060206101b78582860161016c565b9150509250929050565b600069ffffffffffffffffffff82169050919050565b7f4e487b7100000000000000000000000000000000000000000000000000000000600052601160045260246000fd5b6000610211826101c1565b915061021c836101c1565b9250828201905069ffffffffffffffffffff81111561023e5761023d6101d7565b5b92915050565b61024d8161014b565b82525050565b61025c816101c1565b82525050565b6000819050919050565b61027581610262565b82525050565b60006060820190506102906000830186610244565b61029d6020830185610253565b6102aa604083018461026c565b949350505050565b6080516103ea6102cd600039600061015b01526103ea6000f3fe608060405234801561001057600080fd5b50600436106100415760003560e01c806304ea97b014610046578063313ce56714610062578063feaf968c14610080575b600080fd5b610060600480360381019061005b919061020c565b6100a2565b005b61006a610159565b6040516100779190610255565b60405180910390f35b61008861017d565b6040516100999594939291906102bd565b60405180910390f35b60018060008282829054906101000a900469ffffffffffffffffffff166100c9919061033f565b92506101000a81548169ffffffffffffffffffff021916908369ffffffffffffffffffff16021790555080600081905550426002819055507f5b196ccf306f345de8745dffeaf185f4cafe74a334e2b2466d04c880071533b981600160009054906101000a900469ffffffffffffffffffff1660025460405161014e9392919061037d565b60405180910390a150565b7f000000000000000000000000000000000000000000000000000000000000000081565b6000806000806000600160009054906101000a900469ffffffffffffffffffff16600054600254600254600160009054906101000a900469ffffffffffffffffffff16945094509450945094509091929394565b600080fd5b6000819050919050565b6101e9816101d6565b81146101f457600080fd5b50565b600081359050610206816101e0565b92915050565b600060208284031215610222576102216101d1565b5b6000610230848285016101f7565b91505092915050565b600060ff82169050919050565b61024f81610239565b82525050565b600060208201905061026a6000830184610246565b92915050565b600069ffffffffffffffffffff82169050919050565b61028f81610270565b82525050565b61029e816101d6565b82525050565b6000819050919050565b6102b7816102a4565b82525050565b600060a0820190506102d26000830188610286565b6102df6020830187610295565b6102ec60408301866102ae565b6102f960608301856102ae565b6103066080830184610286565b9695505050505050565b7f4e487b7100000000000000000000000000000000000000000000000000000000600052601160045260246000fd5b600061034a82610270565b915061035583610270565b9250828201905069ffffffffffffffffffff81111561037757610376610310565b5b92915050565b60006060820190506103926000830186610295565b61039f6020830185610286565b6103ac60408301846102ae565b94935050505056fea2646970667358221220756ce2086af5a416bb5aaf3358f32f843ae3f2e89100d0bf6eb675d65d3d095964736f6c63430008140033",
  "linkReferences": {},
  "deployedLinkReferences": {}
}