{
  "_format": "hh-sol-artifact-1",
  "contractName": "FypherXInsuranceFundVault",
  "sourceName": "src/FypherXInsuranceFundVault.sol",
  "abi": [
    {
      "inputs": [
        {
          "internalType": "address",
          "name": "token_",
          "type": "address"
        },
        {
          "internalType": "address",
          "name": "initialOperator",
          "type": "address"
        }
      ],
      "stateMutability": "nonpayable",
      "type": "constructor"
    },
    {
      "anonymous": false,
      "inputs": [
        {
          "indexed": true,
          "internalType": "address",
          "name": "from",
          "type": "address"
        },
        {
          "indexed": false,
          "internalType": "uint256",
          "name": "amount",
          "type": "uint256"
        },
        {
          "indexed": false,
          "internalType": "bytes32",
          "name": "referenceId",
          "type": "bytes32"
        }
      ],
      "name": "FundDeposited",
      "type": "event"
    },
    {
      "anonymous": false,
      "inputs": [
        {
          "indexed": true,
          "internalType": "address",
          "name": "to",
          "type": "address"
        },
        {
          "indexed": false,
          "internalType": "uint256",
          "name": "amount",
          "type": "uint256"
        },
        {
          "indexed": false,
          "internalType": "bytes32",
          "name": "referenceId",
          "type": "bytes32"
        }
      ],
      "name": "FundWithdrawn",
      "type": "event"
    },
    {
      "anonymous": false,
      "inputs": [
        {
          "indexed": true,
          "internalType": "address",
          "name": "operator",
          "type": "address"
        },
        {
          "indexed": false,
          "internalType": "bool",
          "name": "allowed",
          "type": "bool"
        }
      ],
      "name": "OperatorUpdated",
      "type": "event"
    },
    {
      "anonymous": false,
      "inputs": [
        {
          "indexed": true,
          "internalType": "address",
          "name": "previousOwner",
          "type": "address"
        },
        {
          "indexed": true,
          "internalType": "address",
          "name": "nextOwner",
          "type": "address"
        }
      ],
      "name": "OwnerUpdated",
      "type": "event"
    },
    {
      "inputs": [],
      "name": "balance",
      "outputs": [
        {
          "internalType": "uint256",
          "name": "",
          "type": "uint256"
        }
      ],
      "stateMutability": "view",
      "type": "function"
    },
    {
      "inputs": [
        {
          "internalType": "uint256",
          "name": "amount",
          "type": "uint256"
        },
        {
          "internalType": "bytes32",
          "name": "referenceId",
          "type": "bytes32"
        }
      ],
      "name": "deposit",
      "outputs": [],
      "stateMutability": "nonpayable",
      "type": "function"
    },
    {
      "inputs": [
        {
          "internalType": "address",
          "name": "",
          "type": "address"
        }
      ],
      "name": "operators",
      "outputs": [
        {
          "internalType": "bool",
          "name": "",
          "type": "bool"
        }
      ],
      "stateMutability": "view",
      "type": "function"
    },
    {
      "inputs": [],
      "name": "owner",
      "outputs": [
        {
          "internalType": "address",
          "name": "",
          "type": "address"
        }
      ],
      "stateMutability": "view",
      "type": "function"
    },
    {
      "inputs": [
        {
          "internalType": "address",
          "name": "operator",
          "type": "address"
        },
        {
          "internalType": "bool",
          "name": "allowed",
          "type": "bool"
        }
      ],
      "name": "setOperator",
      "outputs": [],
      "stateMutability": "nonpayable",
      "type": "function"
    },
    {
      "inputs": [
        {
          "internalType": "address",
          "name": "nextOwner",
          "type": "address"
        }
      ],
      "name": "setOwner",
      "outputs": [],
      "stateMutability": "nonpayable",
      "type": "function"
    },
    {
      "inputs": [],
      "name": "token",
      "outputs": [
        {
          "internalType": "contract IERC20Minimal",
          "name": "",
          "type": "address"
        }
      ],
      "stateMutability": "view",
      "type": "function"
    },
    {
      "inputs": [
        {
          "internalType": "address",
          "name": "to",
          "type": "address"
        },
        {
          "internalType": "uint256",
          "name": "amount",
          "type": "uint256"
        },
        {
          "internalType": "bytes32",
          "name": "referenceId",
          "type": "bytes32"
        }
      ],
      "name": "withdraw",
      "outputs": [],
      "stateMutability": "nonpayable",
      "type": "function"
    }
  ],
  "bytecode": "0x60a06040523480156200001157600080fd5b5060405162001675380380620016758339818101604052810190620000379190620002c8565b600073ffffffffffffffffffffffffffffffffffffffff168273ffffffffffffffffffffffffffffffffffffffff1603620000a9576040517f08c379a0000000000000000000000000000000000000000000000000000000008152600401620000a09062000370565b60405180910390fd5b336000806101000a81548173ffffffffffffffffffffffffffffffffffffffff021916908373ffffffffffffffffffffffffffffffffffffffff1602179055508173ffffffffffffffffffffffffffffffffffffffff1660808173ffffffffffffffffffffffffffffffffffffffff1681525050600073ffffffffffffffffffffffffffffffffffffffff168173ffffffffffffffffffffffffffffffffffffffff1614620001fb5760018060008373ffffffffffffffffffffffffffffffffffffffff1673ffffffffffffffffffffffffffffffffffffffff16815260200190815260200160002060006101000a81548160ff0219169083151502179055508073ffffffffffffffffffffffffffffffffffffffff167f966c160e1c4dbc7df8d69af4ace01e9297c3cf016397b7914971f2fbfa32672d6001604051620001f29190620003af565b60405180910390a25b3373ffffffffffffffffffffffffffffffffffffffff16600073ffffffffffffffffffffffffffffffffffffffff167f8292fce18fa69edf4db7b94ea2e58241df0ae57f97e0a6c9b29067028bf92d7660405160405180910390a35050620003cc565b600080fd5b600073ffffffffffffffffffffffffffffffffffffffff82169050919050565b6000620002908262000263565b9050919050565b620002a28162000283565b8114620002ae57600080fd5b50565b600081519050620002c28162000297565b92915050565b60008060408385031215620002e257620002e16200025e565b5b6000620002f285828601620002b1565b92505060206200030585828601620002b1565b9150509250929050565b600082825260208201905092915050565b7f696e76616c696420746f6b656e00000000000000000000000000000000000000600082015250565b600062000358600d836200030f565b9150620003658262000320565b602082019050919050565b600060208201905081810360008301526200038b8162000349565b9050919050565b60008115159050919050565b620003a98162000392565b82525050565b6000602082019050620003c660008301846200039e565b92915050565b60805161127162000404600039600081816102c8015281816103a30152818161080c015281816108ee0152610a2101526112716000f3fe608060405234801561001057600080fd5b50600436106100885760003560e01c80638da5cb5b1161005b5780638da5cb5b14610111578063b69ef8a81461012f578063c9630cb01461014d578063fc0c546a1461016957610088565b8063106e62901461008d57806313af4035146100a957806313e7c9d8146100c5578063558a7297146100f5575b600080fd5b6100a760048036038101906100a29190610b12565b610187565b005b6100c360048036038101906100be9190610b65565b6104d3565b005b6100df60048036038101906100da9190610b65565b61068d565b6040516100ec9190610bad565b60405180910390f35b61010f600480360381019061010a9190610bf4565b6106ad565b005b6101196107e4565b6040516101269190610c43565b60405180910390f35b610137610808565b6040516101449190610c6d565b60405180910390f35b61016760048036038101906101629190610c88565b6108a9565b005b610171610a1f565b60405161017e9190610d27565b60405180910390f35b600160003373ffffffffffffffffffffffffffffffffffffffff1673ffffffffffffffffffffffffffffffffffffffff16815260200190815260200160002060009054906101000a900460ff16610213576040517f08c379a000000000000000000000000000000000000000000000000000000000815260040161020a90610d9f565b60405180910390fd5b600073ffffffffffffffffffffffffffffffffffffffff168373ffffffffffffffffffffffffffffffffffffffff1603610282576040517f08c379a000000000000000000000000000000000000000000000000000000000815260040161027990610e0b565b60405180910390fd5b600082116102c5576040517f08c379a00000000000000000000000000000000000000000000000000000000081526004016102bc90610e77565b60405180910390fd5b817f000000000000000000000000000000000000000000000000000000000000000073ffffffffffffffffffffffffffffffffffffffff166370a08231306040518263ffffffff1660e01b815260040161031f9190610c43565b602060405180830381865afa15801561033c573d6000803e3d6000fd5b505050506040513d601f19601f820116820180604052508101906103609190610eac565b10156103a1576040517f08c379a000000000000000000000000000000000000000000000000000000000815260040161039890610f25565b60405180910390fd5b7f000000000000000000000000000000000000000000000000000000000000000073ffffffffffffffffffffffffffffffffffffffff1663a9059cbb84846040518363ffffffff1660e01b81526004016103fc929190610f45565b6020604051808303816000875af115801561041b573d6000803e3d6000fd5b505050506040513d601f19601f8201168201806040525081019061043f9190610f83565b61047e576040517f08c379a000000000000000000000000000000000000000000000000000000000815260040161047590610ffc565b60405180910390fd5b8273ffffffffffffffffffffffffffffffffffffffff167f5ce48b0969955331ef53191a7d79f92523ffdcbbef2c65f3d48906fd888ac41383836040516104c692919061102b565b60405180910390a2505050565b60008054906101000a900473ffffffffffffffffffffffffffffffffffffffff1673ffffffffffffffffffffffffffffffffffffffff163373ffffffffffffffffffffffffffffffffffffffff1614610561576040517f08c379a0000000000000000000000000000000000000000000000000000000008152600401610558906110a0565b60405180910390fd5b600073ffffffffffffffffffffffffffffffffffffffff168173ffffffffffffffffffffffffffffffffffffffff16036105d0576040517f08c379a00000000000000000000000000000000000000000000000000000000081526004016105c79061110c565b60405180910390fd5b8073ffffffffffffffffffffffffffffffffffffffff1660008054906101000a900473ffffffffffffffffffffffffffffffffffffffff1673ffffffffffffffffffffffffffffffffffffffff167f8292fce18fa69edf4db7b94ea2e58241df0ae57f97e0a6c9b29067028bf92d7660405160405180910390a3806000806101000a81548173ffffffffffffffffffffffffffffffffffffffff021916908373ffffffffffffffffffffffffffffffffffffffff16021790555050565b60016020528060005260406000206000915054906101000a900460ff1681565b60008054906101000a900473ffffffffffffffffffffffffffffffffffffffff1673ffffffffffffffffffffffffffffffffffffffff163373ffffffffffffffffffffffffffffffffffffffff161461073b576040517f08c379a0000000000000000000000000000000000000000000000000000000008152600401610732906110a0565b60405180910390fd5b80600160008473ffffffffffffffffffffffffffffffffffffffff1673ffffffffffffffffffffffffffffffffffffffff16815260200190815260200160002060006101000a81548160ff0219169083151502179055508173ffffffffffffffffffffffffffffffffffffffff167f966c160e1c4dbc7df8d69af4ace01e9297c3cf016397b7914971f2fbfa32672d826040516107d89190610bad565b60405180910390a25050565b60008054906101000a900473ffffffffffffffffffffffffffffffffffffffff1681565b60007f000000000000000000000000000000000000000000000000000000000000000073ffffffffffffffffffffffffffffffffffffffff166370a08231306040518263ffffffff1660e01b81526004016108639190610c43565b602060405180830381865afa158015610880573d6000803e3d6000fd5b505050506040513d601f19601f820116820180604052508101906108a49190610eac565b905090565b600082116108ec576040517f08c379a00000000000000000000000000000000000000000000000000000000081526004016108e390611178565b60405180910390fd5b7f000000000000000000000000000000000000000000000000000000000000000073ffffffffffffffffffffffffffffffffffffffff166323b872dd3330856040518463ffffffff1660e01b815260040161094993929190611198565b6020604051808303816000875af1158015610968573d6000803e3d6000fd5b505050506040513d601f19601f8201168201806040525081019061098c9190610f83565b6109cb576040517f08c379a00000000000000000000000000000000000000000000000000000000081526004016109c29061121b565b60405180910390fd5b3373ffffffffffffffffffffffffffffffffffffffff167faad508519b2180c10b04eb1093ed208a052aa5f782d353ba3f6e57d36ff2e2518383604051610a1392919061102b565b60405180910390a25050565b7f000000000000000000000000000000000000000000000000000000000000000081565b600080fd5b600073ffffffffffffffffffffffffffffffffffffffff82169050919050565b6000610a7382610a48565b9050919050565b610a8381610a68565b8114610a8e57600080fd5b50565b600081359050610aa081610a7a565b92915050565b6000819050919050565b610ab981610aa6565b8114610ac457600080fd5b50565b600081359050610ad681610ab0565b92915050565b6000819050919050565b610aef81610adc565b8114610afa57600080fd5b50565b600081359050610b0c81610ae6565b92915050565b600080600060608486031215610b2b57610b2a610a43565b5b6000610b3986828701610a91565b9350506020610b4a86828701610ac7565b9250506040610b5b86828701610afd565b9150509250925092565b600060208284031215610b7b57610b7a610a43565b5b6000610b8984828501610a91565b91505092915050565b60008115159050919050565b610ba781610b92565b82525050565b6000602082019050610bc26000830184610b9e565b92915050565b610bd181610b92565b8114610bdc57600080fd5b50565b600081359050610bee81610bc8565b92915050565b60008060408385031215610c0b57610c0a610a43565b5b6000610c1985828601610a91565b9250506020610c2a85828601610bdf565b9150509250929050565b610c3d81610a68565b82525050565b6000602082019050610c586000830184610c34565b92915050565b610c6781610aa6565b82525050565b6000602082019050610c826000830184610c5e565b92915050565b60008060408385031215610c9f57610c9e610a43565b5b6000610cad85828601610ac7565b9250506020610cbe85828601610afd565b9150509250929050565b6000819050919050565b6000610ced610ce8610ce384610a48565b610cc8565b610a48565b9050919050565b6000610cff82610cd2565b9050919050565b6000610d1182610cf4565b9050919050565b610d2181610d06565b82525050565b6000602082019050610d3c6000830184610d18565b92915050565b600082825260208201905092915050565b7f6e6f74206f70657261746f720000000000000000000000000000000000000000600082015250565b6000610d89600c83610d42565b9150610d9482610d53565b602082019050919050565b60006020820190508181036000830152610db881610d7c565b9050919050565b7f696e76616c696420726563697069656e74000000000000000000000000000000600082015250565b6000610df5601183610d42565b9150610e0082610dbf565b602082019050919050565b60006020820190508181036000830152610e2481610de8565b9050919050565b7f696e76616c696420616d6f756e74000000000000000000000000000000000000600082015250565b6000610e61600e83610d42565b9150610e6c82610e2b565b602082019050919050565b60006020820190508181036000830152610e9081610e54565b9050919050565b600081519050610ea681610ab0565b92915050565b600060208284031215610ec257610ec1610a43565b5b6000610ed084828501610e97565b91505092915050565b7f696e73756666696369656e74207661756c742062616c616e6365000000000000600082015250565b6000610f0f601a83610d42565b9150610f1a82610ed9565b602082019050919050565b60006020820190508181036000830152610f3e81610f02565b9050919050565b6000604082019050610f5a6000830185610c34565b610f676020830184610c5e565b9392505050565b600081519050610f7d81610bc8565b92915050565b600060208284031215610f9957610f98610a43565b5b6000610fa784828501610f6e565b91505092915050565b7f7769746864726177206661696c65640000000000000000000000000000000000600082015250565b6000610fe6600f83610d42565b9150610ff182610fb0565b602082019050919050565b6000602082019050818103600083015261101581610fd9565b9050919050565b61102581610adc565b82525050565b60006040820190506110406000830185610c5e565b61104d602083018461101c565b9392505050565b7f6e6f74206f776e65720000000000000000000000000000000000000000000000600082015250565b600061108a600983610d42565b915061109582611054565b602082019050919050565b600060208201905081810360008301526110b98161107d565b9050919050565b7f696e76616c6964206f776e657200000000000000000000000000000000000000600082015250565b60006110f6600d83610d42565b9150611101826110c0565b602082019050919050565b60006020820190508181036000830152611125816110e9565b9050919050565b7f696e76616c6964206465706f7369740000000000000000000000000000000000600082015250565b6000611162600f83610d42565b915061116d8261112c565b602082019050919050565b6000602082019050818103600083015261119181611155565b9050919050565b60006060820190506111ad6000830186610c34565b6111ba6020830185610c34565b6111c76040830184610c5e565b949350505050565b7f7472616e73666572206661696c65640000000000000000000000000000000000600082015250565b6000611205600f83610d42565b9150611210826111cf565b602082019050919050565b60006020820190508181036000830152611234816111f8565b905091905056fea264697066735822122012fc7b4e82f49abdb8f181798b5e3fd4d6d1cb7c0d6a78fca48fc686a1eaebb664736f6c63430008140033",
  "linkReferences": {},
  "deployedLinkReferences": {}
}