{
  "_format": "hh-sol-artifact-1",
  "contractName": "FypherPerpsClearinghouse",
  "sourceName": "src/FypherPerpsClearinghouse.sol",
  "abi": [
    {
      "inputs": [
        {
          "internalType": "address",
          "name": "collateralToken_",
          "type": "address"
        },
        {
          "internalType": "address",
          "name": "oracleRouter_",
          "type": "address"
        }
      ],
      "stateMutability": "nonpayable",
      "type": "constructor"
    },
    {
      "anonymous": false,
      "inputs": [
        {
          "indexed": true,
          "internalType": "address",
          "name": "account",
          "type": "address"
        },
        {
          "indexed": false,
          "internalType": "uint256",
          "name": "amountE18",
          "type": "uint256"
        }
      ],
      "name": "CollateralDeposited",
      "type": "event"
    },
    {
      "anonymous": false,
      "inputs": [
        {
          "indexed": true,
          "internalType": "address",
          "name": "account",
          "type": "address"
        },
        {
          "indexed": false,
          "internalType": "uint256",
          "name": "amountE18",
          "type": "uint256"
        }
      ],
      "name": "CollateralWithdrawn",
      "type": "event"
    },
    {
      "anonymous": false,
      "inputs": [
        {
          "indexed": true,
          "internalType": "address",
          "name": "account",
          "type": "address"
        },
        {
          "indexed": true,
          "internalType": "bytes32",
          "name": "marketId",
          "type": "bytes32"
        },
        {
          "indexed": false,
          "internalType": "uint256",
          "name": "amountE18",
          "type": "uint256"
        }
      ],
      "name": "InsuranceFundDrawn",
      "type": "event"
    },
    {
      "anonymous": false,
      "inputs": [
        {
          "indexed": true,
          "internalType": "address",
          "name": "previousFund",
          "type": "address"
        },
        {
          "indexed": true,
          "internalType": "address",
          "name": "nextFund",
          "type": "address"
        }
      ],
      "name": "InsuranceFundUpdated",
      "type": "event"
    },
    {
      "anonymous": false,
      "inputs": [
        {
          "indexed": true,
          "internalType": "address",
          "name": "liquidator",
          "type": "address"
        },
        {
          "indexed": false,
          "internalType": "bool",
          "name": "allowed",
          "type": "bool"
        }
      ],
      "name": "LiquidatorUpdated",
      "type": "event"
    },
    {
      "anonymous": false,
      "inputs": [
        {
          "indexed": true,
          "internalType": "bytes32",
          "name": "marketId",
          "type": "bytes32"
        },
        {
          "indexed": false,
          "internalType": "uint32",
          "name": "initialMarginBps",
          "type": "uint32"
        },
        {
          "indexed": false,
          "internalType": "uint32",
          "name": "maintenanceMarginBps",
          "type": "uint32"
        },
        {
          "indexed": false,
          "internalType": "uint32",
          "name": "maxTradeDeviationBps",
          "type": "uint32"
        },
        {
          "indexed": false,
          "internalType": "uint256",
          "name": "maxLeverageE18",
          "type": "uint256"
        },
        {
          "indexed": false,
          "internalType": "uint256",
          "name": "maxPositionSizeE18",
          "type": "uint256"
        },
        {
          "indexed": false,
          "internalType": "bool",
          "name": "active",
          "type": "bool"
        }
      ],
      "name": "MarketConfigured",
      "type": "event"
    },
    {
      "anonymous": false,
      "inputs": [
        {
          "indexed": true,
          "internalType": "address",
          "name": "previousOwner",
          "type": "address"
        },
        {
          "indexed": true,
          "internalType": "address",
          "name": "nextOwner",
          "type": "address"
        }
      ],
      "name": "OwnerUpdated",
      "type": "event"
    },
    {
      "anonymous": false,
      "inputs": [
        {
          "indexed": true,
          "internalType": "address",
          "name": "account",
          "type": "address"
        },
        {
          "indexed": true,
          "internalType": "bytes32",
          "name": "marketId",
          "type": "bytes32"
        },
        {
          "indexed": false,
          "internalType": "uint256",
          "name": "markPriceE18",
          "type": "uint256"
        },
        {
          "indexed": false,
          "internalType": "int256",
          "name": "realizedPnlE18",
          "type": "int256"
        }
      ],
      "name": "PositionLiquidated",
      "type": "event"
    },
    {
      "anonymous": false,
      "inputs": [
        {
          "indexed": true,
          "internalType": "address",
          "name": "relayer",
          "type": "address"
        },
        {
          "indexed": false,
          "internalType": "bool",
          "name": "allowed",
          "type": "bool"
        }
      ],
      "name": "RelayerUpdated",
      "type": "event"
    },
    {
      "anonymous": false,
      "inputs": [
        {
          "indexed": true,
          "internalType": "address",
          "name": "account",
          "type": "address"
        },
        {
          "indexed": true,
          "internalType": "bytes32",
          "name": "marketId",
          "type": "bytes32"
        },
        {
          "indexed": false,
          "internalType": "bool",
          "name": "isLong",
          "type": "bool"
        },
        {
          "indexed": false,
          "internalType": "uint256",
          "name": "sizeDeltaE18",
          "type": "uint256"
        },
        {
          "indexed": false,
          "internalType": "uint256",
          "name": "executionPriceE18",
          "type": "uint256"
        },
        {
          "indexed": false,
          "internalType": "uint256",
          "name": "requestedLeverageE18",
          "type": "uint256"
        }
      ],
      "name": "TradeApplied",
      "type": "event"
    },
    {
      "inputs": [
        {
          "internalType": "address",
          "name": "",
          "type": "address"
        }
      ],
      "name": "collateralBalanceE18",
      "outputs": [
        {
          "internalType": "int256",
          "name": "",
          "type": "int256"
        }
      ],
      "stateMutability": "view",
      "type": "function"
    },
    {
      "inputs": [],
      "name": "collateralToken",
      "outputs": [
        {
          "internalType": "contract IERC20Minimal",
          "name": "",
          "type": "address"
        }
      ],
      "stateMutability": "view",
      "type": "function"
    },
    {
      "inputs": [
        {
          "internalType": "bytes32",
          "name": "marketId",
          "type": "bytes32"
        },
        {
          "internalType": "uint32",
          "name": "initialMarginBps",
          "type": "uint32"
        },
        {
          "internalType": "uint32",
          "name": "maintenanceMarginBps",
          "type": "uint32"
        },
        {
          "internalType": "uint32",
          "name": "maxTradeDeviationBps",
          "type": "uint32"
        },
        {
          "internalType": "uint256",
          "name": "maxLeverageE18",
          "type": "uint256"
        },
        {
          "internalType": "uint256",
          "name": "maxPositionSizeE18",
          "type": "uint256"
        },
        {
          "internalType": "bool",
          "name": "active",
          "type": "bool"
        }
      ],
      "name": "configureMarket",
      "outputs": [],
      "stateMutability": "nonpayable",
      "type": "function"
    },
    {
      "inputs": [
        {
          "internalType": "uint256",
          "name": "amountE18",
          "type": "uint256"
        }
      ],
      "name": "deposit",
      "outputs": [],
      "stateMutability": "nonpayable",
      "type": "function"
    },
    {
      "inputs": [
        {
          "internalType": "address",
          "name": "account",
          "type": "address"
        }
      ],
      "name": "equity",
      "outputs": [
        {
          "internalType": "int256",
          "name": "",
          "type": "int256"
        }
      ],
      "stateMutability": "view",
      "type": "function"
    },
    {
      "inputs": [
        {
          "internalType": "address",
          "name": "account",
          "type": "address"
        },
        {
          "internalType": "bytes32",
          "name": "marketId",
          "type": "bytes32"
        },
        {
          "internalType": "bool",
          "name": "isLong",
          "type": "bool"
        },
        {
          "internalType": "uint256",
          "name": "sizeDeltaE18",
          "type": "uint256"
        },
        {
          "internalType": "uint256",
          "name": "executionPriceE18",
          "type": "uint256"
        },
        {
          "internalType": "uint256",
          "name": "requestedLeverageE18",
          "type": "uint256"
        }
      ],
      "name": "executeMatchedTrade",
      "outputs": [],
      "stateMutability": "nonpayable",
      "type": "function"
    },
    {
      "inputs": [
        {
          "internalType": "address",
          "name": "account",
          "type": "address"
        }
      ],
      "name": "getAccountMarkets",
      "outputs": [
        {
          "internalType": "bytes32[]",
          "name": "",
          "type": "bytes32[]"
        }
      ],
      "stateMutability": "view",
      "type": "function"
    },
    {
      "inputs": [
        {
          "internalType": "address",
          "name": "account",
          "type": "address"
        }
      ],
      "name": "getAccountSnapshot",
      "outputs": [
        {
          "internalType": "int256",
          "name": "collateralE18",
          "type": "int256"
        },
        {
          "internalType": "int256",
          "name": "unrealizedPnlE18",
          "type": "int256"
        },
        {
          "internalType": "int256",
          "name": "equityE18",
          "type": "int256"
        },
        {
          "internalType": "uint256",
          "name": "initialMarginUsedE18",
          "type": "uint256"
        },
        {
          "internalType": "uint256",
          "name": "maintenanceMarginE18",
          "type": "uint256"
        },
        {
          "internalType": "bool",
          "name": "liquidatable",
          "type": "bool"
        }
      ],
      "stateMutability": "view",
      "type": "function"
    },
    {
      "inputs": [],
      "name": "getConfiguredMarkets",
      "outputs": [
        {
          "internalType": "bytes32[]",
          "name": "",
          "type": "bytes32[]"
        }
      ],
      "stateMutability": "view",
      "type": "function"
    },
    {
      "inputs": [],
      "name": "insuranceFund",
      "outputs": [
        {
          "internalType": "contract IFypherInsuranceFund",
          "name": "",
          "type": "address"
        }
      ],
      "stateMutability": "view",
      "type": "function"
    },
    {
      "inputs": [
        {
          "internalType": "address",
          "name": "account",
          "type": "address"
        }
      ],
      "name": "isLiquidatable",
      "outputs": [
        {
          "internalType": "bool",
          "name": "",
          "type": "bool"
        }
      ],
      "stateMutability": "view",
      "type": "function"
    },
    {
      "inputs": [
        {
          "internalType": "address",
          "name": "account",
          "type": "address"
        },
        {
          "internalType": "bytes32",
          "name": "marketId",
          "type": "bytes32"
        }
      ],
      "name": "liquidate",
      "outputs": [],
      "stateMutability": "nonpayable",
      "type": "function"
    },
    {
      "inputs": [
        {
          "internalType": "address",
          "name": "",
          "type": "address"
        }
      ],
      "name": "liquidators",
      "outputs": [
        {
          "internalType": "bool",
          "name": "",
          "type": "bool"
        }
      ],
      "stateMutability": "view",
      "type": "function"
    },
    {
      "inputs": [
        {
          "internalType": "bytes32",
          "name": "",
          "type": "bytes32"
        }
      ],
      "name": "markets",
      "outputs": [
        {
          "internalType": "bool",
          "name": "active",
          "type": "bool"
        },
        {
          "internalType": "uint32",
          "name": "initialMarginBps",
          "type": "uint32"
        },
        {
          "internalType": "uint32",
          "name": "maintenanceMarginBps",
          "type": "uint32"
        },
        {
          "internalType": "uint32",
          "name": "maxTradeDeviationBps",
          "type": "uint32"
        },
        {
          "internalType": "uint256",
          "name": "maxLeverageE18",
          "type": "uint256"
        },
        {
          "internalType": "uint256",
          "name": "maxPositionSizeE18",
          "type": "uint256"
        }
      ],
      "stateMutability": "view",
      "type": "function"
    },
    {
      "inputs": [],
      "name": "oracleRouter",
      "outputs": [
        {
          "internalType": "contract IFypherOracleRouter",
          "name": "",
          "type": "address"
        }
      ],
      "stateMutability": "view",
      "type": "function"
    },
    {
      "inputs": [],
      "name": "owner",
      "outputs": [
        {
          "internalType": "address",
          "name": "",
          "type": "address"
        }
      ],
      "stateMutability": "view",
      "type": "function"
    },
    {
      "inputs": [
        {
          "internalType": "address",
          "name": "",
          "type": "address"
        },
        {
          "internalType": "bytes32",
          "name": "",
          "type": "bytes32"
        }
      ],
      "name": "positions",
      "outputs": [
        {
          "internalType": "bool",
          "name": "isLong",
          "type": "bool"
        },
        {
          "internalType": "uint256",
          "name": "sizeE18",
          "type": "uint256"
        },
        {
          "internalType": "uint256",
          "name": "entryPriceE18",
          "type": "uint256"
        },
        {
          "internalType": "uint256",
          "name": "marginE18",
          "type": "uint256"
        }
      ],
      "stateMutability": "view",
      "type": "function"
    },
    {
      "inputs": [
        {
          "internalType": "address",
          "name": "",
          "type": "address"
        }
      ],
      "name": "relayers",
      "outputs": [
        {
          "internalType": "bool",
          "name": "",
          "type": "bool"
        }
      ],
      "stateMutability": "view",
      "type": "function"
    },
    {
      "inputs": [
        {
          "internalType": "address",
          "name": "nextFund",
          "type": "address"
        }
      ],
      "name": "setInsuranceFund",
      "outputs": [],
      "stateMutability": "nonpayable",
      "type": "function"
    },
    {
      "inputs": [
        {
          "internalType": "address",
          "name": "liquidator",
          "type": "address"
        },
        {
          "internalType": "bool",
          "name": "allowed",
          "type": "bool"
        }
      ],
      "name": "setLiquidator",
      "outputs": [],
      "stateMutability": "nonpayable",
      "type": "function"
    },
    {
      "inputs": [
        {
          "internalType": "address",
          "name": "nextOwner",
          "type": "address"
        }
      ],
      "name": "setOwner",
      "outputs": [],
      "stateMutability": "nonpayable",
      "type": "function"
    },
    {
      "inputs": [
        {
          "internalType": "address",
          "name": "relayer",
          "type": "address"
        },
        {
          "internalType": "bool",
          "name": "allowed",
          "type": "bool"
        }
      ],
      "name": "setRelayer",
      "outputs": [],
      "stateMutability": "nonpayable",
      "type": "function"
    },
    {
      "inputs": [
        {
          "internalType": "address",
          "name": "account",
          "type": "address"
        }
      ],
      "name": "totalInitialMarginUsed",
      "outputs": [
        {
          "internalType": "uint256",
          "name": "total",
          "type": "uint256"
        }
      ],
      "stateMutability": "view",
      "type": "function"
    },
    {
      "inputs": [
        {
          "internalType": "address",
          "name": "account",
          "type": "address"
        }
      ],
      "name": "totalMaintenanceMarginRequired",
      "outputs": [
        {
          "internalType": "uint256",
          "name": "total",
          "type": "uint256"
        }
      ],
      "stateMutability": "view",
      "type": "function"
    },
    {
      "inputs": [
        {
          "internalType": "address",
          "name": "account",
          "type": "address"
        }
      ],
      "name": "totalUnrealizedPnl",
      "outputs": [
        {
          "internalType": "int256",
          "name": "total",
          "type": "int256"
        }
      ],
      "stateMutability": "view",
      "type": "function"
    },
    {
      "inputs": [
        {
          "internalType": "uint256",
          "name": "amountE18",
          "type": "uint256"
        }
      ],
      "name": "withdraw",
      "outputs": [],
      "stateMutability": "nonpayable",
      "type": "function"
    }
  ],
  "bytecode": "0x60c06040523480156200001157600080fd5b5060405162004d5a38038062004d5a833981810160405281019062000037919062000290565b600073ffffffffffffffffffffffffffffffffffffffff168273ffffffffffffffffffffffffffffffffffffffff1603620000a9576040517f08c379a0000000000000000000000000000000000000000000000000000000008152600401620000a09062000338565b60405180910390fd5b600073ffffffffffffffffffffffffffffffffffffffff168173ffffffffffffffffffffffffffffffffffffffff16036200011b576040517f08c379a00000000000000000000000000000000000000000000000000000000081526004016200011290620003aa565b60405180910390fd5b336000806101000a81548173ffffffffffffffffffffffffffffffffffffffff021916908373ffffffffffffffffffffffffffffffffffffffff1602179055508173ffffffffffffffffffffffffffffffffffffffff1660808173ffffffffffffffffffffffffffffffffffffffff16815250508073ffffffffffffffffffffffffffffffffffffffff1660a08173ffffffffffffffffffffffffffffffffffffffff16815250503373ffffffffffffffffffffffffffffffffffffffff16600073ffffffffffffffffffffffffffffffffffffffff167f8292fce18fa69edf4db7b94ea2e58241df0ae57f97e0a6c9b29067028bf92d7660405160405180910390a35050620003cc565b600080fd5b600073ffffffffffffffffffffffffffffffffffffffff82169050919050565b600062000258826200022b565b9050919050565b6200026a816200024b565b81146200027657600080fd5b50565b6000815190506200028a816200025f565b92915050565b60008060408385031215620002aa57620002a962000226565b5b6000620002ba8582860162000279565b9250506020620002cd8582860162000279565b9150509250929050565b600082825260208201905092915050565b7f696e76616c696420636f6c6c61746572616c0000000000000000000000000000600082015250565b600062000320601283620002d7565b91506200032d82620002e8565b602082019050919050565b60006020820190508181036000830152620003538162000311565b9050919050565b7f696e76616c6964206f7261636c6520726f757465720000000000000000000000600082015250565b600062000392601583620002d7565b91506200039f826200035a565b602082019050919050565b60006020820190508181036000830152620003c58162000383565b9050919050565b60805160a05161493e6200041c60003960008181610c4b0152818161126b01528181611574015281816119b30152611f0f01526000818161086e01528181611aba0152611b21015261493e6000f3fe608060405234801561001057600080fd5b506004361061018e5760003560e01c8063a5c96a7d116100de578063c3c0529311610097578063ea1bad2511610071578063ea1bad25146104da578063ecd8dc3a1461050a578063f7b2bcc714610526578063f90cdb36146105425761018e565b8063c3c0529314610470578063cc2a321d1461048c578063d11102c5146104aa5761018e565b8063a5c96a7d14610383578063b2016bd4146103b3578063b6b55f25146103d1578063b7902303146103ed578063bf57d67f1461040b578063c37f68e21461043b5761018e565b80634453a3741161014b5780635d7f6107116101255780635d7f6107146102e45780637564912b146103005780638da5cb5b146103355780639fabe758146103535761018e565b80634453a3741461027a5780635300f8411461029657806355a29e91146102c65761018e565b8063042e02cf1461019357806313af4035146101c35780632e1a7d4d146101df5780632e8a498c146101fb57806334176a6d1461022b5780633af8c7a61461025e575b600080fd5b6101ad60048036038101906101a8919061336d565b610572565b6040516101ba91906133b5565b60405180910390f35b6101dd60048036038101906101d8919061336d565b61058e565b005b6101f960048036038101906101f49190613406565b610748565b005b6102156004803603810190610210919061336d565b61099a565b604051610222919061344c565b60405180910390f35b6102456004803603810190610240919061349d565b6109f6565b60405161025594939291906134ec565b60405180910390f35b6102786004803603810190610273919061349d565b610a40565b005b610294600480360381019061028f919061355d565b611112565b005b6102b060048036038101906102ab919061336d565b611249565b6040516102bd91906133b5565b60405180910390f35b6102ce611269565b6040516102db91906135fc565b60405180910390f35b6102fe60048036038101906102f99190613617565b61128d565b005b61031a600480360381019061031591906136a4565b6117af565b60405161032c969594939291906136f0565b60405180910390f35b61033d611828565b60405161034a9190613760565b60405180910390f35b61036d6004803603810190610368919061336d565b61184c565b60405161037a919061344c565b60405180910390f35b61039d6004803603810190610398919061336d565b611aa0565b6040516103aa919061344c565b60405180910390f35b6103bb611ab8565b6040516103c8919061379c565b60405180910390f35b6103eb60048036038101906103e69190613406565b611adc565b005b6103f5611ca5565b60405161040291906137d8565b60405180910390f35b6104256004803603810190610420919061336d565b611ccb565b60405161043291906137f3565b60405180910390f35b6104556004803603810190610450919061336d565b612024565b6040516104679695949392919061380e565b60405180910390f35b61048a6004803603810190610485919061336d565b6120a9565b005b6104946121f7565b6040516104a1919061392d565b60405180910390f35b6104c460048036038101906104bf919061336d565b61224f565b6040516104d1919061392d565b60405180910390f35b6104f460048036038101906104ef919061336d565b6122e6565b60405161050191906137f3565b60405180910390f35b610524600480360381019061051f919061355d565b61241a565b005b610540600480360381019061053b919061397b565b612551565b005b61055c6004803603810190610557919061336d565b61293c565b60405161056991906133b5565b60405180910390f35b600061057d82611ccb565b6105868361099a565b129050919050565b60008054906101000a900473ffffffffffffffffffffffffffffffffffffffff1673ffffffffffffffffffffffffffffffffffffffff163373ffffffffffffffffffffffffffffffffffffffff161461061c576040517f08c379a000000000000000000000000000000000000000000000000000000000815260040161061390613a7a565b60405180910390fd5b600073ffffffffffffffffffffffffffffffffffffffff168173ffffffffffffffffffffffffffffffffffffffff160361068b576040517f08c379a000000000000000000000000000000000000000000000000000000000815260040161068290613ae6565b60405180910390fd5b8073ffffffffffffffffffffffffffffffffffffffff1660008054906101000a900473ffffffffffffffffffffffffffffffffffffffff1673ffffffffffffffffffffffffffffffffffffffff167f8292fce18fa69edf4db7b94ea2e58241df0ae57f97e0a6c9b29067028bf92d7660405160405180910390a3806000806101000a81548173ffffffffffffffffffffffffffffffffffffffff021916908373ffffffffffffffffffffffffffffffffffffffff16021790555050565b6000811161078b576040517f08c379a000000000000000000000000000000000000000000000000000000000815260040161078290613b52565b60405180910390fd5b80600460003373ffffffffffffffffffffffffffffffffffffffff1673ffffffffffffffffffffffffffffffffffffffff16815260200190815260200160002054121561080d576040517f08c379a000000000000000000000000000000000000000000000000000000000815260040161080490613bbe565b60405180910390fd5b80600460003373ffffffffffffffffffffffffffffffffffffffff1673ffffffffffffffffffffffffffffffffffffffff168152602001908152602001600020600082825461085c9190613c0d565b9250508190555061086c3361295c565b7f000000000000000000000000000000000000000000000000000000000000000073ffffffffffffffffffffffffffffffffffffffff1663a9059cbb33836040518363ffffffff1660e01b81526004016108c7929190613c50565b6020604051808303816000875af11580156108e6573d6000803e3d6000fd5b505050506040513d601f19601f8201168201806040525081019061090a9190613c8e565b610949576040517f08c379a000000000000000000000000000000000000000000000000000000000815260040161094090613d07565b60405180910390fd5b3373ffffffffffffffffffffffffffffffffffffffff167fc30fcfbcaac9e0deffa719714eaa82396ff506a0d0d0eebe170830177288715d8260405161098f91906137f3565b60405180910390a250565b60006109a58261184c565b600460008473ffffffffffffffffffffffffffffffffffffffff1673ffffffffffffffffffffffffffffffffffffffff168152602001908152602001600020546109ef9190613d27565b9050919050565b6005602052816000526040600020602052806000526040600020600091509150508060000160009054906101000a900460ff16908060010154908060020154908060030154905084565b600260003373ffffffffffffffffffffffffffffffffffffffff1673ffffffffffffffffffffffffffffffffffffffff16815260200190815260200160002060009054906101000a900460ff1680610ae15750600160003373ffffffffffffffffffffffffffffffffffffffff1673ffffffffffffffffffffffffffffffffffffffff16815260200190815260200160002060009054906101000a900460ff165b610b20576040517f08c379a0000000000000000000000000000000000000000000000000000000008152600401610b1790613db7565b60405180910390fd5b610b2982610572565b610b68576040517f08c379a0000000000000000000000000000000000000000000000000000000008152600401610b5f90613e23565b60405180910390fd5b6000600560008473ffffffffffffffffffffffffffffffffffffffff1673ffffffffffffffffffffffffffffffffffffffff16815260200190815260200160002060008381526020019081526020016000206040518060800160405290816000820160009054906101000a900460ff16151515158152602001600182015481526020016002820154815260200160038201548152505090506000816020015111610c47576040517f08c379a0000000000000000000000000000000000000000000000000000000008152600401610c3e90613e8f565b60405180910390fd5b60007f000000000000000000000000000000000000000000000000000000000000000073ffffffffffffffffffffffffffffffffffffffff1663d9f2af52846040518263ffffffff1660e01b8152600401610ca29190613ebe565b602060405180830381865afa158015610cbf573d6000803e3d6000fd5b505050506040513d601f19601f82011682018060405250810190610ce39190613eee565b90506000610cf6838385602001516129fc565b905080600460008773ffffffffffffffffffffffffffffffffffffffff1673ffffffffffffffffffffffffffffffffffffffff1681526020019081526020016000206000828254610d479190613d27565b92505081905550600560008673ffffffffffffffffffffffffffffffffffffffff1673ffffffffffffffffffffffffffffffffffffffff1681526020019081526020016000206000858152602001908152602001600020600080820160006101000a81549060ff021916905560018201600090556002820160009055600382016000905550506000600460008773ffffffffffffffffffffffffffffffffffffffff1673ffffffffffffffffffffffffffffffffffffffff16815260200190815260200160002054905060008112156110b957600081610e2690613f1b565b90506000600a60009054906101000a900473ffffffffffffffffffffffffffffffffffffffff169050600073ffffffffffffffffffffffffffffffffffffffff168173ffffffffffffffffffffffffffffffffffffffff1603610ebe576040517f08c379a0000000000000000000000000000000000000000000000000000000008152600401610eb590613faf565b60405180910390fd5b81600a60009054906101000a900473ffffffffffffffffffffffffffffffffffffffff1673ffffffffffffffffffffffffffffffffffffffff1663b69ef8a86040518163ffffffff1660e01b8152600401602060405180830381865afa158015610f2c573d6000803e3d6000fd5b505050506040513d601f19601f82011682018060405250810190610f509190613eee565b1015610f91576040517f08c379a0000000000000000000000000000000000000000000000000000000008152600401610f889061401b565b60405180910390fd5b600a60009054906101000a900473ffffffffffffffffffffffffffffffffffffffff1673ffffffffffffffffffffffffffffffffffffffff1663106e629030848a6040518463ffffffff1660e01b8152600401610ff09392919061403b565b600060405180830381600087803b15801561100a57600080fd5b505af115801561101e573d6000803e3d6000fd5b505050506000600460008a73ffffffffffffffffffffffffffffffffffffffff1673ffffffffffffffffffffffffffffffffffffffff16815260200190815260200160002081905550868873ffffffffffffffffffffffffffffffffffffffff167fa7a4967cbefa3dd9467a27dea11cdd1c375270bdc7585fedf993719fbee92391846040516110ae91906137f3565b60405180910390a350505b848673ffffffffffffffffffffffffffffffffffffffff167f0c7c819f1853de5b9788ec6eaf03d4a7a35bc99ff737ec6aeb3c75e99581e72e8585604051611102929190614072565b60405180910390a3505050505050565b60008054906101000a900473ffffffffffffffffffffffffffffffffffffffff1673ffffffffffffffffffffffffffffffffffffffff163373ffffffffffffffffffffffffffffffffffffffff16146111a0576040517f08c379a000000000000000000000000000000000000000000000000000000000815260040161119790613a7a565b60405180910390fd5b80600260008473ffffffffffffffffffffffffffffffffffffffff1673ffffffffffffffffffffffffffffffffffffffff16815260200190815260200160002060006101000a81548160ff0219169083151502179055508173ffffffffffffffffffffffffffffffffffffffff167f7c76a56348abb1328ccfd1ab9b73c2ccc33a7ac315cf8b120d9e43601530ceae8260405161123d91906133b5565b60405180910390a25050565b60016020528060005260406000206000915054906101000a900460ff1681565b7f000000000000000000000000000000000000000000000000000000000000000081565b600160003373ffffffffffffffffffffffffffffffffffffffff1673ffffffffffffffffffffffffffffffffffffffff16815260200190815260200160002060009054906101000a900460ff16611319576040517f08c379a0000000000000000000000000000000000000000000000000000000008152600401611310906140e7565b60405180910390fd5b600073ffffffffffffffffffffffffffffffffffffffff168673ffffffffffffffffffffffffffffffffffffffff1603611388576040517f08c379a000000000000000000000000000000000000000000000000000000000815260040161137f90614153565b60405180910390fd5b600083116113cb576040517f08c379a00000000000000000000000000000000000000000000000000000000081526004016113c2906141bf565b60405180910390fd5b6000821161140e576040517f08c379a00000000000000000000000000000000000000000000000000000000081526004016114059061422b565b60405180910390fd5b6000600360008781526020019081526020016000206040518060c00160405290816000820160009054906101000a900460ff161515151581526020016000820160019054906101000a900463ffffffff1663ffffffff1663ffffffff1681526020016000820160059054906101000a900463ffffffff1663ffffffff1663ffffffff1681526020016000820160099054906101000a900463ffffffff1663ffffffff1663ffffffff1681526020016001820154815260200160028201548152505090508060000151611515576040517f08c379a000000000000000000000000000000000000000000000000000000000815260040161150c90614297565b60405180910390fd5b670de0b6b3a76400008210158015611531575080608001518211155b611570576040517f08c379a000000000000000000000000000000000000000000000000000000000815260040161156790614303565b60405180910390fd5b60007f000000000000000000000000000000000000000000000000000000000000000073ffffffffffffffffffffffffffffffffffffffff1663d9f2af52886040518263ffffffff1660e01b81526004016115cb9190613ebe565b602060405180830381865afa1580156115e8573d6000803e3d6000fd5b505050506040513d601f19601f8201168201806040525081019061160c9190613eee565b905061161d84828460600151612b18565b6000600560008a73ffffffffffffffffffffffffffffffffffffffff1673ffffffffffffffffffffffffffffffffffffffff16815260200190815260200160002060008981526020019081526020016000206040518060800160405290816000820160009054906101000a900460ff161515151581526020016001820154815260200160028201548152602001600382015481525050905060008160200151036116d5576116d08989858a8a8a8a612bda565b611746565b86151581600001511515036116f8576116f3898985848a8a8a612cf3565b611745565b8060200151861015611716576117118989838989612ea2565b611744565b806020015186036117325761172d8989838861300d565b611743565b611742898985848b8b8b8b6130fc565b5b5b5b5b61174f8961295c565b878973ffffffffffffffffffffffffffffffffffffffff167f285ff1035f9b09d3412bf08c5abe39e64361a6737f59d5438ae0d63bed7b54638989898960405161179c94939291906134ec565b60405180910390a3505050505050505050565b60036020528060005260406000206000915090508060000160009054906101000a900460ff16908060000160019054906101000a900463ffffffff16908060000160059054906101000a900463ffffffff16908060000160099054906101000a900463ffffffff16908060010154908060020154905086565b60008054906101000a900473ffffffffffffffffffffffffffffffffffffffff1681565b600080600860008473ffffffffffffffffffffffffffffffffffffffff1673ffffffffffffffffffffffffffffffffffffffff1681526020019081526020016000208054806020026020016040519081016040528092919081815260200182805480156118d857602002820191906000526020600020905b8154815260200190600101908083116118c4575b5050505050905060005b8151811015611a99576000600560008673ffffffffffffffffffffffffffffffffffffffff1673ffffffffffffffffffffffffffffffffffffffff168152602001908152602001600020600084848151811061194157611940614323565b5b602002602001015181526020019081526020016000206040518060800160405290816000820160009054906101000a900460ff161515151581526020016001820154815260200160028201548152602001600382015481525050905060008160200151036119af5750611a86565b60007f000000000000000000000000000000000000000000000000000000000000000073ffffffffffffffffffffffffffffffffffffffff1663d9f2af52858581518110611a00576119ff614323565b5b60200260200101516040518263ffffffff1660e01b8152600401611a249190613ebe565b602060405180830381865afa158015611a41573d6000803e3d6000fd5b505050506040513d601f19601f82011682018060405250810190611a659190613eee565b9050611a76828284602001516129fc565b85611a819190613d27565b945050505b8080611a9190614352565b9150506118e2565b5050919050565b60046020528060005260406000206000915090505481565b7f000000000000000000000000000000000000000000000000000000000000000081565b60008111611b1f576040517f08c379a0000000000000000000000000000000000000000000000000000000008152600401611b16906143e6565b60405180910390fd5b7f000000000000000000000000000000000000000000000000000000000000000073ffffffffffffffffffffffffffffffffffffffff166323b872dd3330846040518463ffffffff1660e01b8152600401611b7c93929190614406565b6020604051808303816000875af1158015611b9b573d6000803e3d6000fd5b505050506040513d601f19601f82011682018060405250810190611bbf9190613c8e565b611bfe576040517f08c379a0000000000000000000000000000000000000000000000000000000008152600401611bf590613d07565b60405180910390fd5b80600460003373ffffffffffffffffffffffffffffffffffffffff1673ffffffffffffffffffffffffffffffffffffffff1681526020019081526020016000206000828254611c4d9190613d27565b925050819055503373ffffffffffffffffffffffffffffffffffffffff167fd7243f6f8212d5188fd054141cf6ea89cfc0d91facb8c3afe2f88a135848014282604051611c9a91906137f3565b60405180910390a250565b600a60009054906101000a900473ffffffffffffffffffffffffffffffffffffffff1681565b600080600860008473ffffffffffffffffffffffffffffffffffffffff1673ffffffffffffffffffffffffffffffffffffffff168152602001908152602001600020805480602002602001604051908101604052809291908181526020018280548015611d5757602002820191906000526020600020905b815481526020019060010190808311611d43575b5050505050905060005b815181101561201d576000600560008673ffffffffffffffffffffffffffffffffffffffff1673ffffffffffffffffffffffffffffffffffffffff1681526020019081526020016000206000848481518110611dc057611dbf614323565b5b602002602001015181526020019081526020016000206040518060800160405290816000820160009054906101000a900460ff16151515158152602001600182015481526020016002820154815260200160038201548152505090506000816020015103611e2e575061200a565b600060036000858581518110611e4757611e46614323565b5b602002602001015181526020019081526020016000206040518060c00160405290816000820160009054906101000a900460ff161515151581526020016000820160019054906101000a900463ffffffff1663ffffffff1663ffffffff1681526020016000820160059054906101000a900463ffffffff1663ffffffff1663ffffffff1681526020016000820160099054906101000a900463ffffffff1663ffffffff1663ffffffff16815260200160018201548152602001600282015481525050905060007f000000000000000000000000000000000000000000000000000000000000000073ffffffffffffffffffffffffffffffffffffffff1663d9f2af52868681518110611f5c57611f5b614323565b5b60200260200101516040518263ffffffff1660e01b8152600401611f809190613ebe565b602060405180830381865afa158015611f9d573d6000803e3d6000fd5b505050506040513d601f19601f82011682018060405250810190611fc19190613eee565b90506000611fd3846020015183613136565b9050612710836040015163ffffffff1682611fee919061443d565b611ff891906144ae565b8761200391906144df565b9650505050505b808061201590614352565b915050611d61565b5050919050565b600080600080600080600460008873ffffffffffffffffffffffffffffffffffffffff1673ffffffffffffffffffffffffffffffffffffffff1681526020019081526020016000205495506120788761184c565b94506120838761099a565b935061208e876122e6565b925061209987611ccb565b9150818412905091939550919395565b60008054906101000a900473ffffffffffffffffffffffffffffffffffffffff1673ffffffffffffffffffffffffffffffffffffffff163373ffffffffffffffffffffffffffffffffffffffff1614612137576040517f08c379a000000000000000000000000000000000000000000000000000000000815260040161212e90613a7a565b60405180910390fd5b8073ffffffffffffffffffffffffffffffffffffffff16600a60009054906101000a900473ffffffffffffffffffffffffffffffffffffffff1673ffffffffffffffffffffffffffffffffffffffff167f775be72f3c02cdfa3ef9fd431e09d13a08a983f92a707fcc00192a62c6e44d7160405160405180910390a380600a60006101000a81548173ffffffffffffffffffffffffffffffffffffffff021916908373ffffffffffffffffffffffffffffffffffffffff16021790555050565b6060600680548060200260200160405190810160405280929190818152602001828054801561224557602002820191906000526020600020905b815481526020019060010190808311612231575b5050505050905090565b6060600860008373ffffffffffffffffffffffffffffffffffffffff1673ffffffffffffffffffffffffffffffffffffffff1681526020019081526020016000208054806020026020016040519081016040528092919081815260200182805480156122da57602002820191906000526020600020905b8154815260200190600101908083116122c6575b50505050509050919050565b600080600860008473ffffffffffffffffffffffffffffffffffffffff1673ffffffffffffffffffffffffffffffffffffffff16815260200190815260200160002080548060200260200160405190810160405280929190818152602001828054801561237257602002820191906000526020600020905b81548152602001906001019080831161235e575b5050505050905060005b815181101561241357600560008573ffffffffffffffffffffffffffffffffffffffff1673ffffffffffffffffffffffffffffffffffffffff16815260200190815260200160002060008383815181106123d9576123d8614323565b5b6020026020010151815260200190815260200160002060030154836123fe91906144df565b9250808061240b90614352565b91505061237c565b5050919050565b60008054906101000a900473ffffffffffffffffffffffffffffffffffffffff1673ffffffffffffffffffffffffffffffffffffffff163373ffffffffffffffffffffffffffffffffffffffff16146124a8576040517f08c379a000000000000000000000000000000000000000000000000000000000815260040161249f90613a7a565b60405180910390fd5b80600160008473ffffffffffffffffffffffffffffffffffffffff1673ffffffffffffffffffffffffffffffffffffffff16815260200190815260200160002060006101000a81548160ff0219169083151502179055508173ffffffffffffffffffffffffffffffffffffffff167f4b36b2e66f38ed349bec532105790177f1283bcbc094e6cd48565195d3033c438260405161254591906133b5565b60405180910390a25050565b60008054906101000a900473ffffffffffffffffffffffffffffffffffffffff1673ffffffffffffffffffffffffffffffffffffffff163373ffffffffffffffffffffffffffffffffffffffff16146125df576040517f08c379a00000000000000000000000000000000000000000000000000000000081526004016125d690613a7a565b60405180910390fd5b60008663ffffffff161180156125fd57506127108663ffffffff1611155b61263c576040517f08c379a00000000000000000000000000000000000000000000000000000000081526004016126339061455f565b60405180910390fd5b60008563ffffffff1611801561265e57508563ffffffff168563ffffffff1611155b61269d576040517f08c379a0000000000000000000000000000000000000000000000000000000008152600401612694906145cb565b60405180910390fd5b6127108463ffffffff1611156126e8576040517f08c379a00000000000000000000000000000000000000000000000000000000081526004016126df90614637565b60405180910390fd5b670de0b6b3a7640000831015612733576040517f08c379a000000000000000000000000000000000000000000000000000000000815260040161272a90614303565b60405180910390fd5b60008211612776576040517f08c379a000000000000000000000000000000000000000000000000000000000815260040161276d906146a3565b60405180910390fd5b6040518060c0016040528082151581526020018763ffffffff1681526020018663ffffffff1681526020018563ffffffff168152602001848152602001838152506003600089815260200190815260200160002060008201518160000160006101000a81548160ff02191690831515021790555060208201518160000160016101000a81548163ffffffff021916908363ffffffff16021790555060408201518160000160056101000a81548163ffffffff021916908363ffffffff16021790555060608201518160000160096101000a81548163ffffffff021916908363ffffffff1602179055506080820151816001015560a082015181600201559050506007600088815260200190815260200160002060009054906101000a900460ff166128f15760016007600089815260200190815260200160002060006101000a81548160ff02191690831515021790555060068790806001815401808255809150506001900390600052602060002001600090919091909150555b867f337128ed64bb5ada0849ca995de5d45a2738f3f41bbe0588960db66b5da0a16587878787878760405161292b969594939291906146c3565b60405180910390a250505050505050565b60026020528060005260406000206000915054906101000a900460ff1681565b60006129678261099a565b905060008112156129ad576040517f08c379a00000000000000000000000000000000000000000000000000000000081526004016129a490614770565b60405180910390fd5b6129b6826122e6565b8112156129f8576040517f08c379a00000000000000000000000000000000000000000000000000000000081526004016129ef906147dc565b60405180910390fd5b5050565b600080846000015115612a8f5784604001518410612a4d57846040015184612a2491906147fc565b9050670de0b6b3a76400008382612a3b919061443d565b612a4591906144ae565b915050612b11565b838560400151612a5d91906147fc565b9050670de0b6b3a76400008382612a74919061443d565b612a7e91906144ae565b612a8790613f1b565b915050612b11565b83856040015110612ad357838560400151612aaa91906147fc565b9050670de0b6b3a76400008382612ac1919061443d565b612acb91906144ae565b915050612b11565b846040015184612ae391906147fc565b9050670de0b6b3a76400008382612afa919061443d565b612b0491906144ae565b612b0d90613f1b565b9150505b9392505050565b60008163ffffffff160315612bd55760006127108263ffffffff1684612b3e919061443d565b612b4891906144ae565b83612b5391906144df565b905060006127108363ffffffff1685612b6c919061443d565b612b7691906144ae565b84612b8191906147fc565b9050818511158015612b935750808510155b612bd2576040517f08c379a0000000000000000000000000000000000000000000000000000000008152600401612bc99061487c565b60405180910390fd5b50505b505050565b8460a00151831115612c21576040517f08c379a0000000000000000000000000000000000000000000000000000000008152600401612c18906148e8565b60405180910390fd5b60405180608001604052808515158152602001848152602001838152602001612c4c8786868661315f565b815250600560008973ffffffffffffffffffffffffffffffffffffffff1673ffffffffffffffffffffffffffffffffffffffff168152602001908152602001600020600088815260200190815260200160002060008201518160000160006101000a81548160ff021916908315150217905550602082015181600101556040820151816002015560608201518160030155905050612cea87876131d4565b50505050505050565b6000838560200151612d0591906144df565b90508560a00151811115612d4e576040517f08c379a0000000000000000000000000000000000000000000000000000000008152600401612d45906148e8565b60405180910390fd5b60008385612d5c919061443d565b86604001518760200151612d70919061443d565b612d7a91906144df565b905060008660000151612d98578282612d9391906144ae565b612dbc565b8260018484612da791906144df565b612db191906147fc565b612dbb91906144ae565b5b90506000612dcc8988888861315f565b90506040518060800160405280896000015115158152602001858152602001838152602001828a60600151612e0191906144df565b815250600560008d73ffffffffffffffffffffffffffffffffffffffff1673ffffffffffffffffffffffffffffffffffffffff16815260200190815260200160002060008c815260200190815260200160002060008201518160000160006101000a81548160ff0219169083151502179055506020820151816001015560408201518160020155606082015181600301559050505050505050505050505050565b60008360200151838560600151612eb9919061443d565b612ec391906144ae565b90506000612ed28584866129fc565b905080600460008973ffffffffffffffffffffffffffffffffffffffff1673ffffffffffffffffffffffffffffffffffffffff1681526020019081526020016000206000828254612f239190613d27565b925050819055506040518060800160405280866000015115158152602001858760200151612f5191906147fc565b815260200186604001518152602001838760600151612f7091906147fc565b815250600560008973ffffffffffffffffffffffffffffffffffffffff1673ffffffffffffffffffffffffffffffffffffffff168152602001908152602001600020600088815260200190815260200160002060008201518160000160006101000a81548160ff02191690831515021790555060208201518160010155604082015181600201556060820151816003015590505050505050505050565b600061301e838385602001516129fc565b905080600460008773ffffffffffffffffffffffffffffffffffffffff1673ffffffffffffffffffffffffffffffffffffffff168152602001908152602001600020600082825461306f9190613d27565b92505081905550600560008673ffffffffffffffffffffffffffffffffffffffff1673ffffffffffffffffffffffffffffffffffffffff1681526020019081526020016000206000858152602001908152602001600020600080820160006101000a81549060ff021916905560018201600090556002820160009055600382016000905550505050505050565b6131088888878561300d565b600085602001518461311a91906147fc565b905061312b89898988858888612bda565b505050505050505050565b6000670de0b6b3a7640000828461314d919061443d565b61315791906144ae565b905092915050565b60008061316c8585613136565b90506000612710876020015163ffffffff1683613189919061443d565b61319391906144ae565b9050600084670de0b6b3a7640000846131ac919061443d565b6131b691906144ae565b90508082116131c557806131c7565b815b9350505050949350505050565b600960008373ffffffffffffffffffffffffffffffffffffffff1673ffffffffffffffffffffffffffffffffffffffff168152602001908152602001600020600082815260200190815260200160002060009054906101000a900460ff16613306576001600960008473ffffffffffffffffffffffffffffffffffffffff1673ffffffffffffffffffffffffffffffffffffffff168152602001908152602001600020600083815260200190815260200160002060006101000a81548160ff021916908315150217905550600860008373ffffffffffffffffffffffffffffffffffffffff1673ffffffffffffffffffffffffffffffffffffffff1681526020019081526020016000208190806001815401808255809150506001900390600052602060002001600090919091909150555b5050565b600080fd5b600073ffffffffffffffffffffffffffffffffffffffff82169050919050565b600061333a8261330f565b9050919050565b61334a8161332f565b811461335557600080fd5b50565b60008135905061336781613341565b92915050565b6000602082840312156133835761338261330a565b5b600061339184828501613358565b91505092915050565b60008115159050919050565b6133af8161339a565b82525050565b60006020820190506133ca60008301846133a6565b92915050565b6000819050919050565b6133e3816133d0565b81146133ee57600080fd5b50565b600081359050613400816133da565b92915050565b60006020828403121561341c5761341b61330a565b5b600061342a848285016133f1565b91505092915050565b6000819050919050565b61344681613433565b82525050565b6000602082019050613461600083018461343d565b92915050565b6000819050919050565b61347a81613467565b811461348557600080fd5b50565b60008135905061349781613471565b92915050565b600080604083850312156134b4576134b361330a565b5b60006134c285828601613358565b92505060206134d385828601613488565b9150509250929050565b6134e6816133d0565b82525050565b600060808201905061350160008301876133a6565b61350e60208301866134dd565b61351b60408301856134dd565b61352860608301846134dd565b95945050505050565b61353a8161339a565b811461354557600080fd5b50565b60008135905061355781613531565b92915050565b600080604083850312156135745761357361330a565b5b600061358285828601613358565b925050602061359385828601613548565b9150509250929050565b6000819050919050565b60006135c26135bd6135b88461330f565b61359d565b61330f565b9050919050565b60006135d4826135a7565b9050919050565b60006135e6826135c9565b9050919050565b6135f6816135db565b82525050565b600060208201905061361160008301846135ed565b92915050565b60008060008060008060c087890312156136345761363361330a565b5b600061364289828a01613358565b965050602061365389828a01613488565b955050604061366489828a01613548565b945050606061367589828a016133f1565b935050608061368689828a016133f1565b92505060a061369789828a016133f1565b9150509295509295509295565b6000602082840312156136ba576136b961330a565b5b60006136c884828501613488565b91505092915050565b600063ffffffff82169050919050565b6136ea816136d1565b82525050565b600060c08201905061370560008301896133a6565b61371260208301886136e1565b61371f60408301876136e1565b61372c60608301866136e1565b61373960808301856134dd565b61374660a08301846134dd565b979650505050505050565b61375a8161332f565b82525050565b60006020820190506137756000830184613751565b92915050565b6000613786826135c9565b9050919050565b6137968161377b565b82525050565b60006020820190506137b1600083018461378d565b92915050565b60006137c2826135c9565b9050919050565b6137d2816137b7565b82525050565b60006020820190506137ed60008301846137c9565b92915050565b600060208201905061380860008301846134dd565b92915050565b600060c082019050613823600083018961343d565b613830602083018861343d565b61383d604083018761343d565b61384a60608301866134dd565b61385760808301856134dd565b61386460a08301846133a6565b979650505050505050565b600081519050919050565b600082825260208201905092915050565b6000819050602082019050919050565b6138a481613467565b82525050565b60006138b6838361389b565b60208301905092915050565b6000602082019050919050565b60006138da8261386f565b6138e4818561387a565b93506138ef8361388b565b8060005b8381101561392057815161390788826138aa565b9750613912836138c2565b9250506001810190506138f3565b5085935050505092915050565b6000602082019050818103600083015261394781846138cf565b905092915050565b613958816136d1565b811461396357600080fd5b50565b6000813590506139758161394f565b92915050565b600080600080600080600060e0888a03121561399a5761399961330a565b5b60006139a88a828b01613488565b97505060206139b98a828b01613966565b96505060406139ca8a828b01613966565b95505060606139db8a828b01613966565b94505060806139ec8a828b016133f1565b93505060a06139fd8a828b016133f1565b92505060c0613a0e8a828b01613548565b91505092959891949750929550565b600082825260208201905092915050565b7f6e6f74206f776e65720000000000000000000000000000000000000000000000600082015250565b6000613a64600983613a1d565b9150613a6f82613a2e565b602082019050919050565b60006020820190508181036000830152613a9381613a57565b9050919050565b7f696e76616c6964206f776e657200000000000000000000000000000000000000600082015250565b6000613ad0600d83613a1d565b9150613adb82613a9a565b602082019050919050565b60006020820190508181036000830152613aff81613ac3565b9050919050565b7f696e76616c696420776974686472617700000000000000000000000000000000600082015250565b6000613b3c601083613a1d565b9150613b4782613b06565b602082019050919050565b60006020820190508181036000830152613b6b81613b2f565b9050919050565b7f696e73756666696369656e7420636f6c6c61746572616c000000000000000000600082015250565b6000613ba8601783613a1d565b9150613bb382613b72565b602082019050919050565b60006020820190508181036000830152613bd781613b9b565b9050919050565b7f4e487b7100000000000000000000000000000000000000000000000000000000600052601160045260246000fd5b6000613c1882613433565b9150613c2383613433565b9250828203905081811260008412168282136000851215161715613c4a57613c49613bde565b5b92915050565b6000604082019050613c656000830185613751565b613c7260208301846134dd565b9392505050565b600081519050613c8881613531565b92915050565b600060208284031215613ca457613ca361330a565b5b6000613cb284828501613c79565b91505092915050565b7f7472616e73666572206661696c65640000000000000000000000000000000000600082015250565b6000613cf1600f83613a1d565b9150613cfc82613cbb565b602082019050919050565b60006020820190508181036000830152613d2081613ce4565b9050919050565b6000613d3282613433565b9150613d3d83613433565b925082820190508281121560008312168382126000841215161715613d6557613d64613bde565b5b92915050565b7f6e6f74206c697175696461746f72000000000000000000000000000000000000600082015250565b6000613da1600e83613a1d565b9150613dac82613d6b565b602082019050919050565b60006020820190508181036000830152613dd081613d94565b9050919050565b7f6163636f756e74206865616c7468790000000000000000000000000000000000600082015250565b6000613e0d600f83613a1d565b9150613e1882613dd7565b602082019050919050565b60006020820190508181036000830152613e3c81613e00565b9050919050565b7f706f736974696f6e206d697373696e6700000000000000000000000000000000600082015250565b6000613e79601083613a1d565b9150613e8482613e43565b602082019050919050565b60006020820190508181036000830152613ea881613e6c565b9050919050565b613eb881613467565b82525050565b6000602082019050613ed36000830184613eaf565b92915050565b600081519050613ee8816133da565b92915050565b600060208284031215613f0457613f0361330a565b5b6000613f1284828501613ed9565b91505092915050565b6000613f2682613433565b91507f80000000000000000000000000000000000000000000000000000000000000008203613f5857613f57613bde565b5b816000039050919050565b7f6e6f20696e737572616e63652066756e64000000000000000000000000000000600082015250565b6000613f99601183613a1d565b9150613fa482613f63565b602082019050919050565b60006020820190508181036000830152613fc881613f8c565b9050919050565b7f696e737572616e636520756e64657266756e6465640000000000000000000000600082015250565b6000614005601583613a1d565b915061401082613fcf565b602082019050919050565b6000602082019050818103600083015261403481613ff8565b9050919050565b60006060820190506140506000830186613751565b61405d60208301856134dd565b61406a6040830184613eaf565b949350505050565b600060408201905061408760008301856134dd565b614094602083018461343d565b9392505050565b7f6e6f742072656c61796572000000000000000000000000000000000000000000600082015250565b60006140d1600b83613a1d565b91506140dc8261409b565b602082019050919050565b60006020820190508181036000830152614100816140c4565b9050919050565b7f696e76616c6964206163636f756e740000000000000000000000000000000000600082015250565b600061413d600f83613a1d565b915061414882614107565b602082019050919050565b6000602082019050818103600083015261416c81614130565b9050919050565b7f696e76616c69642073697a650000000000000000000000000000000000000000600082015250565b60006141a9600c83613a1d565b91506141b482614173565b602082019050919050565b600060208201905081810360008301526141d88161419c565b9050919050565b7f696e76616c696420657865637574696f6e207072696365000000000000000000600082015250565b6000614215601783613a1d565b9150614220826141df565b602082019050919050565b6000602082019050818103600083015261424481614208565b9050919050565b7f6d61726b657420696e6163746976650000000000000000000000000000000000600082015250565b6000614281600f83613a1d565b915061428c8261424b565b602082019050919050565b600060208201905081810360008301526142b081614274565b9050919050565b7f696e76616c6964206c6576657261676500000000000000000000000000000000600082015250565b60006142ed601083613a1d565b91506142f8826142b7565b602082019050919050565b6000602082019050818103600083015261431c816142e0565b9050919050565b7f4e487b7100000000000000000000000000000000000000000000000000000000600052603260045260246000fd5b600061435d826133d0565b91507fffffffffffffffffffffffffffffffffffffffffffffffffffffffffffffffff820361438f5761438e613bde565b5b600182019050919050565b7f696e76616c6964206465706f7369740000000000000000000000000000000000600082015250565b60006143d0600f83613a1d565b91506143db8261439a565b602082019050919050565b600060208201905081810360008301526143ff816143c3565b9050919050565b600060608201905061441b6000830186613751565b6144286020830185613751565b61443560408301846134dd565b949350505050565b6000614448826133d0565b9150614453836133d0565b9250828202614461816133d0565b9150828204841483151761447857614477613bde565b5b5092915050565b7f4e487b7100000000000000000000000000000000000000000000000000000000600052601260045260246000fd5b60006144b9826133d0565b91506144c4836133d0565b9250826144d4576144d361447f565b5b828204905092915050565b60006144ea826133d0565b91506144f5836133d0565b925082820190508082111561450d5761450c613bde565b5b92915050565b7f696e76616c696420696d00000000000000000000000000000000000000000000600082015250565b6000614549600a83613a1d565b915061455482614513565b602082019050919050565b600060208201905081810360008301526145788161453c565b9050919050565b7f696e76616c6964206d6d00000000000000000000000000000000000000000000600082015250565b60006145b5600a83613a1d565b91506145c08261457f565b602082019050919050565b600060208201905081810360008301526145e4816145a8565b9050919050565b7f696e76616c696420646576696174696f6e000000000000000000000000000000600082015250565b6000614621601183613a1d565b915061462c826145eb565b602082019050919050565b6000602082019050818103600083015261465081614614565b9050919050565b7f696e76616c6964206d617820706f736974696f6e000000000000000000000000600082015250565b600061468d601483613a1d565b915061469882614657565b602082019050919050565b600060208201905081810360008301526146bc81614680565b9050919050565b600060c0820190506146d860008301896136e1565b6146e560208301886136e1565b6146f260408301876136e1565b6146ff60608301866134dd565b61470c60808301856134dd565b61471960a08301846133a6565b979650505050505050565b7f6e65676174697665206571756974790000000000000000000000000000000000600082015250565b600061475a600f83613a1d565b915061476582614724565b602082019050919050565b600060208201905081810360008301526147898161474d565b9050919050565b7f696e697469616c206d617267696e206272656163680000000000000000000000600082015250565b60006147c6601583613a1d565b91506147d182614790565b602082019050919050565b600060208201905081810360008301526147f5816147b9565b9050919050565b6000614807826133d0565b9150614812836133d0565b925082820390508181111561482a57614829613bde565b5b92915050565b7f747261646520646576696174696f6e20746f6f20686967680000000000000000600082015250565b6000614866601883613a1d565b915061487182614830565b602082019050919050565b6000602082019050818103600083015261489581614859565b9050919050565b7f706f736974696f6e20746f6f206c617267650000000000000000000000000000600082015250565b60006148d2601283613a1d565b91506148dd8261489c565b602082019050919050565b60006020820190508181036000830152614901816148c5565b905091905056fea264697066735822122068c39fe1d844b687edc681bc06ab1144a8f7cf2b01ff2942f8c2f66756a1bee564736f6c63430008140033",
  "linkReferences": {},
  "deployedLinkReferences": {}
}