{
  "_format": "hh-sol-artifact-1",
  "contractName": "FypherXSettlement",
  "sourceName": "src/FypherXSettlement.sol",
  "abi": [
    {
      "inputs": [
        {
          "internalType": "address",
          "name": "initialRelayer",
          "type": "address"
        },
        {
          "internalType": "address",
          "name": "initialSigner",
          "type": "address"
        }
      ],
      "stateMutability": "nonpayable",
      "type": "constructor"
    },
    {
      "anonymous": false,
      "inputs": [
        {
          "indexed": true,
          "internalType": "address",
          "name": "previousOwner",
          "type": "address"
        },
        {
          "indexed": true,
          "internalType": "address",
          "name": "nextOwner",
          "type": "address"
        }
      ],
      "name": "OwnerUpdated",
      "type": "event"
    },
    {
      "anonymous": false,
      "inputs": [
        {
          "indexed": true,
          "internalType": "address",
          "name": "relayer",
          "type": "address"
        },
        {
          "indexed": false,
          "internalType": "bool",
          "name": "allowed",
          "type": "bool"
        }
      ],
      "name": "RelayerUpdated",
      "type": "event"
    },
    {
      "anonymous": false,
      "inputs": [
        {
          "indexed": true,
          "internalType": "bytes32",
          "name": "tradeId",
          "type": "bytes32"
        },
        {
          "indexed": true,
          "internalType": "bytes32",
          "name": "marketId",
          "type": "bytes32"
        },
        {
          "indexed": false,
          "internalType": "bytes32",
          "name": "makerSubaccountId",
          "type": "bytes32"
        },
        {
          "indexed": false,
          "internalType": "bytes32",
          "name": "takerSubaccountId",
          "type": "bytes32"
        },
        {
          "indexed": false,
          "internalType": "uint256",
          "name": "priceE18",
          "type": "uint256"
        },
        {
          "indexed": false,
          "internalType": "uint256",
          "name": "quantityE18",
          "type": "uint256"
        },
        {
          "indexed": false,
          "internalType": "uint256",
          "name": "makerFeeE18",
          "type": "uint256"
        },
        {
          "indexed": false,
          "internalType": "uint256",
          "name": "takerFeeE18",
          "type": "uint256"
        },
        {
          "indexed": false,
          "internalType": "bytes",
          "name": "payload",
          "type": "bytes"
        }
      ],
      "name": "TradeSettled",
      "type": "event"
    },
    {
      "anonymous": false,
      "inputs": [
        {
          "indexed": true,
          "internalType": "address",
          "name": "previousSigner",
          "type": "address"
        },
        {
          "indexed": true,
          "internalType": "address",
          "name": "nextSigner",
          "type": "address"
        }
      ],
      "name": "TradeSignerUpdated",
      "type": "event"
    },
    {
      "inputs": [],
      "name": "SETTLE_TYPEHASH",
      "outputs": [
        {
          "internalType": "bytes32",
          "name": "",
          "type": "bytes32"
        }
      ],
      "stateMutability": "view",
      "type": "function"
    },
    {
      "inputs": [
        {
          "components": [
            {
              "internalType": "bytes32",
              "name": "tradeId",
              "type": "bytes32"
            },
            {
              "internalType": "bytes32",
              "name": "marketId",
              "type": "bytes32"
            },
            {
              "internalType": "bytes32",
              "name": "makerSubaccountId",
              "type": "bytes32"
            },
            {
              "internalType": "bytes32",
              "name": "takerSubaccountId",
              "type": "bytes32"
            },
            {
              "internalType": "uint256",
              "name": "priceE18",
              "type": "uint256"
            },
            {
              "internalType": "uint256",
              "name": "quantityE18",
              "type": "uint256"
            },
            {
              "internalType": "uint256",
              "name": "makerFeeE18",
              "type": "uint256"
            },
            {
              "internalType": "uint256",
              "name": "takerFeeE18",
              "type": "uint256"
            },
            {
              "internalType": "bytes",
              "name": "payload",
              "type": "bytes"
            }
          ],
          "internalType": "struct FypherXSettlement.Trade",
          "name": "trade",
          "type": "tuple"
        }
      ],
      "name": "digest",
      "outputs": [
        {
          "internalType": "bytes32",
          "name": "",
          "type": "bytes32"
        }
      ],
      "stateMutability": "view",
      "type": "function"
    },
    {
      "inputs": [],
      "name": "domainSeparator",
      "outputs": [
        {
          "internalType": "bytes32",
          "name": "",
          "type": "bytes32"
        }
      ],
      "stateMutability": "view",
      "type": "function"
    },
    {
      "inputs": [],
      "name": "owner",
      "outputs": [
        {
          "internalType": "address",
          "name": "",
          "type": "address"
        }
      ],
      "stateMutability": "view",
      "type": "function"
    },
    {
      "inputs": [
        {
          "internalType": "address",
          "name": "",
          "type": "address"
        }
      ],
      "name": "relayers",
      "outputs": [
        {
          "internalType": "bool",
          "name": "",
          "type": "bool"
        }
      ],
      "stateMutability": "view",
      "type": "function"
    },
    {
      "inputs": [
        {
          "internalType": "address",
          "name": "nextOwner",
          "type": "address"
        }
      ],
      "name": "setOwner",
      "outputs": [],
      "stateMutability": "nonpayable",
      "type": "function"
    },
    {
      "inputs": [
        {
          "internalType": "address",
          "name": "relayer",
          "type": "address"
        },
        {
          "internalType": "bool",
          "name": "allowed",
          "type": "bool"
        }
      ],
      "name": "setRelayer",
      "outputs": [],
      "stateMutability": "nonpayable",
      "type": "function"
    },
    {
      "inputs": [
        {
          "internalType": "address",
          "name": "nextSigner",
          "type": "address"
        }
      ],
      "name": "setTradeSigner",
      "outputs": [],
      "stateMutability": "nonpayable",
      "type": "function"
    },
    {
      "inputs": [
        {
          "components": [
            {
              "internalType": "bytes32",
              "name": "tradeId",
              "type": "bytes32"
            },
            {
              "internalType": "bytes32",
              "name": "marketId",
              "type": "bytes32"
            },
            {
              "internalType": "bytes32",
              "name": "makerSubaccountId",
              "type": "bytes32"
            },
            {
              "internalType": "bytes32",
              "name": "takerSubaccountId",
              "type": "bytes32"
            },
            {
              "internalType": "uint256",
              "name": "priceE18",
              "type": "uint256"
            },
            {
              "internalType": "uint256",
              "name": "quantityE18",
              "type": "uint256"
            },
            {
              "internalType": "uint256",
              "name": "makerFeeE18",
              "type": "uint256"
            },
            {
              "internalType": "uint256",
              "name": "takerFeeE18",
              "type": "uint256"
            },
            {
              "internalType": "bytes",
              "name": "payload",
              "type": "bytes"
            }
          ],
          "internalType": "struct FypherXSettlement.Trade",
          "name": "trade",
          "type": "tuple"
        },
        {
          "internalType": "bytes",
          "name": "signature",
          "type": "bytes"
        }
      ],
      "name": "settleTrade",
      "outputs": [],
      "stateMutability": "nonpayable",
      "type": "function"
    },
    {
      "inputs": [
        {
          "internalType": "bytes32",
          "name": "",
          "type": "bytes32"
        }
      ],
      "name": "settledTrades",
      "outputs": [
        {
          "internalType": "bool",
          "name": "",
          "type": "bool"
        }
      ],
      "stateMutability": "view",
      "type": "function"
    },
    {
      "inputs": [],
      "name": "tradeSigner",
      "outputs": [
        {
          "internalType": "address",
          "name": "",
          "type": "address"
        }
      ],
      "stateMutability": "view",
      "type": "function"
    }
  ],
  "bytecode": "0x60806040523480156200001157600080fd5b5060405162001de538038062001de58339818101604052810190620000379190620002f5565b336000806101000a81548173ffffffffffffffffffffffffffffffffffffffff021916908373ffffffffffffffffffffffffffffffffffffffff1602179055503373ffffffffffffffffffffffffffffffffffffffff16600073ffffffffffffffffffffffffffffffffffffffff167f8292fce18fa69edf4db7b94ea2e58241df0ae57f97e0a6c9b29067028bf92d7660405160405180910390a3600073ffffffffffffffffffffffffffffffffffffffff168273ffffffffffffffffffffffffffffffffffffffff1614620001b1576001600260008473ffffffffffffffffffffffffffffffffffffffff1673ffffffffffffffffffffffffffffffffffffffff16815260200190815260200160002060006101000a81548160ff0219169083151502179055508173ffffffffffffffffffffffffffffffffffffffff167f4b36b2e66f38ed349bec532105790177f1283bcbc094e6cd48565195d3033c436001604051620001a8919062000359565b60405180910390a25b600073ffffffffffffffffffffffffffffffffffffffff168173ffffffffffffffffffffffffffffffffffffffff1614620002835780600160006101000a81548173ffffffffffffffffffffffffffffffffffffffff021916908373ffffffffffffffffffffffffffffffffffffffff1602179055508073ffffffffffffffffffffffffffffffffffffffff16600073ffffffffffffffffffffffffffffffffffffffff167f041047e2b6647961a4a7931af109758a36345726fe127f30589e4ada9faf770b60405160405180910390a35b505062000376565b600080fd5b600073ffffffffffffffffffffffffffffffffffffffff82169050919050565b6000620002bd8262000290565b9050919050565b620002cf81620002b0565b8114620002db57600080fd5b50565b600081519050620002ef81620002c4565b92915050565b600080604083850312156200030f576200030e6200028b565b5b60006200031f85828601620002de565b92505060206200033285828601620002de565b9150509250929050565b60008115159050919050565b62000353816200033c565b82525050565b600060208201905062000370600083018462000348565b92915050565b611a5f80620003866000396000f3fe608060405234801561001057600080fd5b50600436106100a95760003560e01c8063a6f54a7911610071578063a6f54a7914610152578063c4aa85101461016e578063cc7d8a181461018c578063d86e7e22146101bc578063ecd8dc3a146101ec578063f698da2514610208576100a9565b806313af4035146100ae57806340202610146100ca5780635300f841146100e85780636990c449146101185780638da5cb5b14610134575b600080fd5b6100c860048036038101906100c39190610e92565b610226565b005b6100d26103e0565b6040516100df9190610ed8565b60405180910390f35b61010260048036038101906100fd9190610e92565b610404565b60405161010f9190610f0e565b60405180910390f35b610132600480360381019061012d9190610e92565b610424565b005b61013c6105e1565b6040516101499190610f38565b60405180910390f35b61016c60048036038101906101679190610fdd565b610605565b005b6101766108da565b6040516101839190610f38565b60405180910390f35b6101a660048036038101906101a19190611085565b610900565b6040516101b39190610f0e565b60405180910390f35b6101d660048036038101906101d191906110b2565b610920565b6040516101e39190610ed8565b60405180910390f35b61020660048036038101906102019190611127565b610932565b005b610210610a69565b60405161021d9190610ed8565b60405180910390f35b60008054906101000a900473ffffffffffffffffffffffffffffffffffffffff1673ffffffffffffffffffffffffffffffffffffffff163373ffffffffffffffffffffffffffffffffffffffff16146102b4576040517f08c379a00000000000000000000000000000000000000000000000000000000081526004016102ab906111c4565b60405180910390fd5b600073ffffffffffffffffffffffffffffffffffffffff168173ffffffffffffffffffffffffffffffffffffffff1603610323576040517f08c379a000000000000000000000000000000000000000000000000000000000815260040161031a90611230565b60405180910390fd5b8073ffffffffffffffffffffffffffffffffffffffff1660008054906101000a900473ffffffffffffffffffffffffffffffffffffffff1673ffffffffffffffffffffffffffffffffffffffff167f8292fce18fa69edf4db7b94ea2e58241df0ae57f97e0a6c9b29067028bf92d7660405160405180910390a3806000806101000a81548173ffffffffffffffffffffffffffffffffffffffff021916908373ffffffffffffffffffffffffffffffffffffffff16021790555050565b7f854b7f72615a3f1b5d004050db41f64343674103da4b7fb9e2047af98b413f2881565b60026020528060005260406000206000915054906101000a900460ff1681565b60008054906101000a900473ffffffffffffffffffffffffffffffffffffffff1673ffffffffffffffffffffffffffffffffffffffff163373ffffffffffffffffffffffffffffffffffffffff16146104b2576040517f08c379a00000000000000000000000000000000000000000000000000000000081526004016104a9906111c4565b60405180910390fd5b600073ffffffffffffffffffffffffffffffffffffffff168173ffffffffffffffffffffffffffffffffffffffff1603610521576040517f08c379a00000000000000000000000000000000000000000000000000000000081526004016105189061129c565b60405180910390fd5b8073ffffffffffffffffffffffffffffffffffffffff16600160009054906101000a900473ffffffffffffffffffffffffffffffffffffffff1673ffffffffffffffffffffffffffffffffffffffff167f041047e2b6647961a4a7931af109758a36345726fe127f30589e4ada9faf770b60405160405180910390a380600160006101000a81548173ffffffffffffffffffffffffffffffffffffffff021916908373ffffffffffffffffffffffffffffffffffffffff16021790555050565b60008054906101000a900473ffffffffffffffffffffffffffffffffffffffff1681565b600260003373ffffffffffffffffffffffffffffffffffffffff1673ffffffffffffffffffffffffffffffffffffffff16815260200190815260200160002060009054906101000a900460ff16610691576040517f08c379a000000000000000000000000000000000000000000000000000000000815260040161068890611308565b60405180910390fd5b600360008460000135815260200190815260200160002060009054906101000a900460ff16156106f6576040517f08c379a00000000000000000000000000000000000000000000000000000000081526004016106ed90611374565b60405180910390fd5b600073ffffffffffffffffffffffffffffffffffffffff16600160009054906101000a900473ffffffffffffffffffffffffffffffffffffffff1673ffffffffffffffffffffffffffffffffffffffff1603610787576040517f08c379a000000000000000000000000000000000000000000000000000000000815260040161077e906113e0565b60405180910390fd5b600061079284610a78565b9050600160009054906101000a900473ffffffffffffffffffffffffffffffffffffffff1673ffffffffffffffffffffffffffffffffffffffff166107d8828585610b54565b73ffffffffffffffffffffffffffffffffffffffff161461082e576040517f08c379a00000000000000000000000000000000000000000000000000000000081526004016108259061144c565b60405180910390fd5b6001600360008660000135815260200190815260200160002060006101000a81548160ff021916908315150217905550836020013584600001357ffc92df8140381e32e87696208f65e859e3800157d5079440cbd142f61fde581a8660400135876060013588608001358960a001358a60c001358b60e001358c8061010001906108b8919061147b565b6040516108cc989796959493929190611555565b60405180910390a350505050565b600160009054906101000a900473ffffffffffffffffffffffffffffffffffffffff1681565b60036020528060005260406000206000915054906101000a900460ff1681565b600061092b82610a78565b9050919050565b60008054906101000a900473ffffffffffffffffffffffffffffffffffffffff1673ffffffffffffffffffffffffffffffffffffffff163373ffffffffffffffffffffffffffffffffffffffff16146109c0576040517f08c379a00000000000000000000000000000000000000000000000000000000081526004016109b7906111c4565b60405180910390fd5b80600260008473ffffffffffffffffffffffffffffffffffffffff1673ffffffffffffffffffffffffffffffffffffffff16815260200190815260200160002060006101000a81548160ff0219169083151502179055508173ffffffffffffffffffffffffffffffffffffffff167f4b36b2e66f38ed349bec532105790177f1283bcbc094e6cd48565195d3033c4382604051610a5d9190610f0e565b60405180910390a25050565b6000610a73610d5c565b905090565b6000807f854b7f72615a3f1b5d004050db41f64343674103da4b7fb9e2047af98b413f28836000013584602001358560400135866060013587608001358860a001358960c001358a60e001358b806101000190610ad5919061147b565b604051610ae39291906115fd565b6040518091039020604051602001610b049a99989796959493929190611616565b604051602081830303815290604052805190602001209050610b24610d5c565b81604051602001610b3692919061172a565b60405160208183030381529060405280519060200120915050919050565b600060418383905014610b9c576040517f08c379a0000000000000000000000000000000000000000000000000000000008152600401610b93906117ad565b60405180910390fd5b60008060008535925060208601359150604086013560001a90507f7fffffffffffffffffffffffffffffff5d576e7357a4501ddfe92f46681b20a08260001c1115610c1c576040517f08c379a0000000000000000000000000000000000000000000000000000000008152600401610c1390611819565b60405180910390fd5b601b8160ff161015610c3857601b81610c359190611875565b90505b601b8160ff161480610c4d5750601c8160ff16145b610c8c576040517f08c379a0000000000000000000000000000000000000000000000000000000008152600401610c83906118f6565b60405180910390fd5b600060018883868660405160008152602001604052604051610cb19493929190611925565b6020604051602081039080840390855afa158015610cd3573d6000803e3d6000fd5b505050602060405103519050600073ffffffffffffffffffffffffffffffffffffffff168173ffffffffffffffffffffffffffffffffffffffff1603610d4e576040517f08c379a0000000000000000000000000000000000000000000000000000000008152600401610d45906119b6565b60405180910390fd5b809450505050509392505050565b60007f8b73c3c69bb8fe3d512ecc4cf759cc79239f7b179b0ffacaa9a75d522b39400f6040518060400160405280601181526020017f46797068657258536574746c656d656e74000000000000000000000000000000815250805190602001206040518060400160405280600181526020017f3100000000000000000000000000000000000000000000000000000000000000815250805190602001204630604051602001610e0f9594939291906119d6565b60405160208183030381529060405280519060200120905090565b600080fd5b600080fd5b600073ffffffffffffffffffffffffffffffffffffffff82169050919050565b6000610e5f82610e34565b9050919050565b610e6f81610e54565b8114610e7a57600080fd5b50565b600081359050610e8c81610e66565b92915050565b600060208284031215610ea857610ea7610e2a565b5b6000610eb684828501610e7d565b91505092915050565b6000819050919050565b610ed281610ebf565b82525050565b6000602082019050610eed6000830184610ec9565b92915050565b60008115159050919050565b610f0881610ef3565b82525050565b6000602082019050610f236000830184610eff565b92915050565b610f3281610e54565b82525050565b6000602082019050610f4d6000830184610f29565b92915050565b600080fd5b60006101208284031215610f6f57610f6e610f53565b5b81905092915050565b600080fd5b600080fd5b600080fd5b60008083601f840112610f9d57610f9c610f78565b5b8235905067ffffffffffffffff811115610fba57610fb9610f7d565b5b602083019150836001820283011115610fd657610fd5610f82565b5b9250929050565b600080600060408486031215610ff657610ff5610e2a565b5b600084013567ffffffffffffffff81111561101457611013610e2f565b5b61102086828701610f58565b935050602084013567ffffffffffffffff81111561104157611040610e2f565b5b61104d86828701610f87565b92509250509250925092565b61106281610ebf565b811461106d57600080fd5b50565b60008135905061107f81611059565b92915050565b60006020828403121561109b5761109a610e2a565b5b60006110a984828501611070565b91505092915050565b6000602082840312156110c8576110c7610e2a565b5b600082013567ffffffffffffffff8111156110e6576110e5610e2f565b5b6110f284828501610f58565b91505092915050565b61110481610ef3565b811461110f57600080fd5b50565b600081359050611121816110fb565b92915050565b6000806040838503121561113e5761113d610e2a565b5b600061114c85828601610e7d565b925050602061115d85828601611112565b9150509250929050565b600082825260208201905092915050565b7f6e6f74206f776e65720000000000000000000000000000000000000000000000600082015250565b60006111ae600983611167565b91506111b982611178565b602082019050919050565b600060208201905081810360008301526111dd816111a1565b9050919050565b7f696e76616c6964206f776e657200000000000000000000000000000000000000600082015250565b600061121a600d83611167565b9150611225826111e4565b602082019050919050565b600060208201905081810360008301526112498161120d565b9050919050565b7f696e76616c6964207369676e6572000000000000000000000000000000000000600082015250565b6000611286600e83611167565b915061129182611250565b602082019050919050565b600060208201905081810360008301526112b581611279565b9050919050565b7f6e6f742072656c61796572000000000000000000000000000000000000000000600082015250565b60006112f2600b83611167565b91506112fd826112bc565b602082019050919050565b60006020820190508181036000830152611321816112e5565b9050919050565b7f747261646520616c726561647920736574746c65640000000000000000000000600082015250565b600061135e601583611167565b915061136982611328565b602082019050919050565b6000602082019050818103600083015261138d81611351565b9050919050565b7f7369676e657220756e7365740000000000000000000000000000000000000000600082015250565b60006113ca600c83611167565b91506113d582611394565b602082019050919050565b600060208201905081810360008301526113f9816113bd565b9050919050565b7f696e76616c6964207369676e6174757265000000000000000000000000000000600082015250565b6000611436601183611167565b915061144182611400565b602082019050919050565b6000602082019050818103600083015261146581611429565b9050919050565b600080fd5b600080fd5b600080fd5b600080833560016020038436030381126114985761149761146c565b5b80840192508235915067ffffffffffffffff8211156114ba576114b9611471565b5b6020830192506001820236038313156114d6576114d5611476565b5b509250929050565b6000819050919050565b6114f1816114de565b82525050565b600082825260208201905092915050565b82818337600083830152505050565b6000601f19601f8301169050919050565b600061153483856114f7565b9350611541838584611508565b61154a83611517565b840190509392505050565b600060e08201905061156a600083018b610ec9565b611577602083018a610ec9565b61158460408301896114e8565b61159160608301886114e8565b61159e60808301876114e8565b6115ab60a08301866114e8565b81810360c08301526115be818486611528565b90509998505050505050505050565b600081905092915050565b60006115e483856115cd565b93506115f1838584611508565b82840190509392505050565b600061160a8284866115d8565b91508190509392505050565b60006101408201905061162c600083018d610ec9565b611639602083018c610ec9565b611646604083018b610ec9565b611653606083018a610ec9565b6116606080830189610ec9565b61166d60a08301886114e8565b61167a60c08301876114e8565b61168760e08301866114e8565b6116956101008301856114e8565b6116a3610120830184610ec9565b9b9a5050505050505050505050565b600081905092915050565b7f1901000000000000000000000000000000000000000000000000000000000000600082015250565b60006116f36002836116b2565b91506116fe826116bd565b600282019050919050565b6000819050919050565b61172461171f82610ebf565b611709565b82525050565b6000611735826116e6565b91506117418285611713565b6020820191506117518284611713565b6020820191508190509392505050565b7f696e76616c696420736967206c656e6774680000000000000000000000000000600082015250565b6000611797601283611167565b91506117a282611761565b602082019050919050565b600060208201905081810360008301526117c68161178a565b9050919050565b7f696e76616c696420730000000000000000000000000000000000000000000000600082015250565b6000611803600983611167565b915061180e826117cd565b602082019050919050565b60006020820190508181036000830152611832816117f6565b9050919050565b600060ff82169050919050565b7f4e487b7100000000000000000000000000000000000000000000000000000000600052601160045260246000fd5b600061188082611839565b915061188b83611839565b9250828201905060ff8111156118a4576118a3611846565b5b92915050565b7f696e76616c696420760000000000000000000000000000000000000000000000600082015250565b60006118e0600983611167565b91506118eb826118aa565b602082019050919050565b6000602082019050818103600083015261190f816118d3565b9050919050565b61191f81611839565b82525050565b600060808201905061193a6000830187610ec9565b6119476020830186611916565b6119546040830185610ec9565b6119616060830184610ec9565b95945050505050565b7f7265636f766572206661696c6564000000000000000000000000000000000000600082015250565b60006119a0600e83611167565b91506119ab8261196a565b602082019050919050565b600060208201905081810360008301526119cf81611993565b9050919050565b600060a0820190506119eb6000830188610ec9565b6119f86020830187610ec9565b611a056040830186610ec9565b611a1260608301856114e8565b611a1f6080830184610f29565b969550505050505056fea26469706673582212207229945d1b84a2b7d7b96807cecbdeca918c937b9da60bd0d7ac8c3996c3aa0464736f6c63430008140033",
  "linkReferences": {},
  "deployedLinkReferences": {}
}