{"test/mocks/MockPriceOracle.sol":{"MockPriceOracle":{"abi":[{"inputs":[{"internalType":"uint8","name":"decimals_","type":"uint8"},{"internalType":"int256","name":"initialAnswer_","type":"int256"}],"stateMutability":"nonpayable","type":"constructor"},{"anonymous":false,"inputs":[{"indexed":false,"internalType":"int256","name":"answer","type":"int256"},{"indexed":false,"internalType":"uint80","name":"roundId","type":"uint80"},{"indexed":false,"internalType":"uint256","name":"updatedAt","type":"uint256"}],"name":"AnswerUpdated","type":"event"},{"inputs":[],"name":"decimals","outputs":[{"internalType":"uint8","name":"","type":"uint8"}],"stateMutability":"view","type":"function"},{"inputs":[],"name":"latestRoundData","outputs":[{"internalType":"uint80","name":"roundId","type":"uint80"},{"internalType":"int256","name":"answer","type":"int256"},{"internalType":"uint256","name":"startedAt","type":"uint256"},{"internalType":"uint256","name":"updatedAt","type":"uint256"},{"internalType":"uint80","name":"answeredInRound","type":"uint80"}],"stateMutability":"view","type":"function"},{"inputs":[{"internalType":"int256","name":"newAnswer","type":"int256"}],"name":"setLatestAnswer","outputs":[],"stateMutability":"nonpayable","type":"function"}],"evm":{"bytecode":{"linkReferences":{},"object":"60a060405234801561001057600080fd5b506040516106b73803806106b783398181016040528101906100329190610181565b8160ff1660808160ff168152505061004f8161005660201b60201c565b50506102b2565b60018060008282829054906101000a900469ffffffffffffffffffff1661007d9190610206565b92506101000a81548169ffffffffffffffffffff021916908369ffffffffffffffffffff16021790555080600081905550426002819055507f5b196ccf306f345de8745dffeaf185f4cafe74a334e2b2466d04c880071533b981600160009054906101000a900469ffffffffffffffffffff166002546040516101029392919061027b565b60405180910390a150565b600080fd5b600060ff82169050919050565b61012881610112565b811461013357600080fd5b50565b6000815190506101458161011f565b92915050565b6000819050919050565b61015e8161014b565b811461016957600080fd5b50565b60008151905061017b81610155565b92915050565b600080604083850312156101985761019761010d565b5b60006101a685828601610136565b92505060206101b78582860161016c565b9150509250929050565b600069ffffffffffffffffffff82169050919050565b7f4e487b7100000000000000000000000000000000000000000000000000000000600052601160045260246000fd5b6000610211826101c1565b915061021c836101c1565b9250828201905069ffffffffffffffffffff81111561023e5761023d6101d7565b5b92915050565b61024d8161014b565b82525050565b61025c816101c1565b82525050565b6000819050919050565b61027581610262565b82525050565b60006060820190506102906000830186610244565b61029d6020830185610253565b6102aa604083018461026c565b949350505050565b6080516103ea6102cd600039600061015b01526103ea6000f3fe608060405234801561001057600080fd5b50600436106100415760003560e01c806304ea97b014610046578063313ce56714610062578063feaf968c14610080575b600080fd5b610060600480360381019061005b919061020c565b6100a2565b005b61006a610159565b6040516100779190610255565b60405180910390f35b61008861017d565b6040516100999594939291906102bd565b60405180910390f35b60018060008282829054906101000a900469ffffffffffffffffffff166100c9919061033f565b92506101000a81548169ffffffffffffffffffff021916908369ffffffffffffffffffff16021790555080600081905550426002819055507f5b196ccf306f345de8745dffeaf185f4cafe74a334e2b2466d04c880071533b981600160009054906101000a900469ffffffffffffffffffff1660025460405161014e9392919061037d565b60405180910390a150565b7f000000000000000000000000000000000000000000000000000000000000000081565b6000806000806000600160009054906101000a900469ffffffffffffffffffff16600054600254600254600160009054906101000a900469ffffffffffffffffffff16945094509450945094509091929394565b600080fd5b6000819050919050565b6101e9816101d6565b81146101f457600080fd5b50565b600081359050610206816101e0565b92915050565b600060208284031215610222576102216101d1565b5b6000610230848285016101f7565b91505092915050565b600060ff82169050919050565b61024f81610239565b82525050565b600060208201905061026a6000830184610246565b92915050565b600069ffffffffffffffffffff82169050919050565b61028f81610270565b82525050565b61029e816101d6565b82525050565b6000819050919050565b6102b7816102a4565b82525050565b600060a0820190506102d26000830188610286565b6102df6020830187610295565b6102ec60408301866102ae565b6102f960608301856102ae565b6103066080830184610286565b9695505050505050565b7f4e487b7100000000000000000000000000000000000000000000000000000000600052601160045260246000fd5b600061034a82610270565b915061035583610270565b9250828201905069ffffffffffffffffffff81111561037757610376610310565b5b92915050565b60006060820190506103926000830186610295565b61039f6020830185610286565b6103ac60408301846102ae565b94935050505056fea2646970667358221220756ce2086af5a416bb5aaf3358f32f843ae3f2e89100d0bf6eb675d65d3d095964736f6c63430008140033","opcodes":"PUSH1 0xA0 PUSH1 0x40 MSTORE CALLVALUE DUP1 ISZERO PUSH2 0x10 JUMPI PUSH1 0x0 DUP1 REVERT JUMPDEST POP PUSH1 0x40 MLOAD PUSH2 0x6B7 CODESIZE SUB DUP1 PUSH2 0x6B7 DUP4 CODECOPY DUP2 DUP2 ADD PUSH1 0x40 MSTORE DUP2 ADD SWAP1 PUSH2 0x32 SWAP2 SWAP1 PUSH2 0x181 JUMP JUMPDEST DUP2 PUSH1 0xFF AND PUSH1 0x80 DUP2 PUSH1 0xFF AND DUP2 MSTORE POP POP PUSH2 0x4F DUP2 PUSH2 0x56 PUSH1 0x20 SHL PUSH1 0x20 SHR JUMP JUMPDEST POP POP PUSH2 0x2B2 JUMP JUMPDEST PUSH1 0x1 DUP1 PUSH1 0x0 DUP3 DUP3 DUP3 SWAP1 SLOAD SWAP1 PUSH2 0x100 EXP SWAP1 DIV PUSH10 0xFFFFFFFFFFFFFFFFFFFF AND PUSH2 0x7D SWAP2 SWAP1 PUSH2 0x206 JUMP JUMPDEST SWAP3 POP PUSH2 0x100 EXP DUP2 SLOAD DUP2 PUSH10 0xFFFFFFFFFFFFFFFFFFFF MUL NOT AND SWAP1 DUP4 PUSH10 0xFFFFFFFFFFFFFFFFFFFF AND MUL OR SWAP1 SSTORE POP DUP1 PUSH1 0x0 DUP2 SWAP1 SSTORE POP TIMESTAMP PUSH1 0x2 DUP2 SWAP1 SSTORE POP PUSH32 0x5B196CCF306F345DE8745DFFEAF185F4CAFE74A334E2B2466D04C880071533B9 DUP2 PUSH1 0x1 PUSH1 0x0 SWAP1 SLOAD SWAP1 PUSH2 0x100 EXP SWAP1 DIV PUSH10 0xFFFFFFFFFFFFFFFFFFFF AND PUSH1 0x2 SLOAD PUSH1 0x40 MLOAD PUSH2 0x102 SWAP4 SWAP3 SWAP2 SWAP1 PUSH2 0x27B JUMP JUMPDEST PUSH1 0x40 MLOAD DUP1 SWAP2 SUB SWAP1 LOG1 POP JUMP JUMPDEST PUSH1 0x0 DUP1 REVERT JUMPDEST PUSH1 0x0 PUSH1 0xFF DUP3 AND SWAP1 POP SWAP2 SWAP1 POP JUMP JUMPDEST PUSH2 0x128 DUP2 PUSH2 0x112 JUMP JUMPDEST DUP2 EQ PUSH2 0x133 JUMPI PUSH1 0x0 DUP1 REVERT JUMPDEST POP JUMP JUMPDEST PUSH1 0x0 DUP2 MLOAD SWAP1 POP PUSH2 0x145 DUP2 PUSH2 0x11F JUMP JUMPDEST SWAP3 SWAP2 POP POP JUMP JUMPDEST PUSH1 0x0 DUP2 SWAP1 POP SWAP2 SWAP1 POP JUMP JUMPDEST PUSH2 0x15E DUP2 PUSH2 0x14B JUMP JUMPDEST DUP2 EQ PUSH2 0x169 JUMPI PUSH1 0x0 DUP1 REVERT JUMPDEST POP JUMP JUMPDEST PUSH1 0x0 DUP2 MLOAD SWAP1 POP PUSH2 0x17B DUP2 PUSH2 0x155 JUMP JUMPDEST SWAP3 SWAP2 POP POP JUMP JUMPDEST PUSH1 0x0 DUP1 PUSH1 0x40 DUP4 DUP6 SUB SLT ISZERO PUSH2 0x198 JUMPI PUSH2 0x197 PUSH2 0x10D JUMP JUMPDEST JUMPDEST PUSH1 0x0 PUSH2 0x1A6 DUP6 DUP3 DUP7 ADD PUSH2 0x136 JUMP JUMPDEST SWAP3 POP POP PUSH1 0x20 PUSH2 0x1B7 DUP6 DUP3 DUP7 ADD PUSH2 0x16C JUMP JUMPDEST SWAP2 POP POP SWAP3 POP SWAP3 SWAP1 POP JUMP JUMPDEST PUSH1 0x0 PUSH10 0xFFFFFFFFFFFFFFFFFFFF DUP3 AND SWAP1 POP SWAP2 SWAP1 POP JUMP JUMPDEST PUSH32 0x4E487B7100000000000000000000000000000000000000000000000000000000 PUSH1 0x0 MSTORE PUSH1 0x11 PUSH1 0x4 MSTORE PUSH1 0x24 PUSH1 0x0 REVERT JUMPDEST PUSH1 0x0 PUSH2 0x211 DUP3 PUSH2 0x1C1 JUMP JUMPDEST SWAP2 POP PUSH2 0x21C DUP4 PUSH2 0x1C1 JUMP JUMPDEST SWAP3 POP DUP3 DUP3 ADD SWAP1 POP PUSH10 0xFFFFFFFFFFFFFFFFFFFF DUP2 GT ISZERO PUSH2 0x23E JUMPI PUSH2 0x23D PUSH2 0x1D7 JUMP JUMPDEST JUMPDEST SWAP3 SWAP2 POP POP JUMP JUMPDEST PUSH2 0x24D DUP2 PUSH2 0x14B JUMP JUMPDEST DUP3 MSTORE POP POP JUMP JUMPDEST PUSH2 0x25C DUP2 PUSH2 0x1C1 JUMP JUMPDEST DUP3 MSTORE POP POP JUMP JUMPDEST PUSH1 0x0 DUP2 SWAP1 POP SWAP2 SWAP1 POP JUMP JUMPDEST PUSH2 0x275 DUP2 PUSH2 0x262 JUMP JUMPDEST DUP3 MSTORE POP POP JUMP JUMPDEST PUSH1 0x0 PUSH1 0x60 DUP3 ADD SWAP1 POP PUSH2 0x290 PUSH1 0x0 DUP4 ADD DUP7 PUSH2 0x244 JUMP JUMPDEST PUSH2 0x29D PUSH1 0x20 DUP4 ADD DUP6 PUSH2 0x253 JUMP JUMPDEST PUSH2 0x2AA PUSH1 0x40 DUP4 ADD DUP5 PUSH2 0x26C JUMP JUMPDEST SWAP5 SWAP4 POP POP POP POP JUMP JUMPDEST PUSH1 0x80 MLOAD PUSH2 0x3EA PUSH2 0x2CD PUSH1 0x0 CODECOPY PUSH1 0x0 PUSH2 0x15B ADD MSTORE PUSH2 0x3EA PUSH1 0x0 RETURN INVALID PUSH1 0x80 PUSH1 0x40 MSTORE CALLVALUE DUP1 ISZERO PUSH2 0x10 JUMPI PUSH1 0x0 DUP1 REVERT JUMPDEST POP PUSH1 0x4 CALLDATASIZE LT PUSH2 0x41 JUMPI PUSH1 0x0 CALLDATALOAD PUSH1 0xE0 SHR DUP1 PUSH4 0x4EA97B0 EQ PUSH2 0x46 JUMPI DUP1 PUSH4 0x313CE567 EQ PUSH2 0x62 JUMPI DUP1 PUSH4 0xFEAF968C EQ PUSH2 0x80 JUMPI JUMPDEST PUSH1 0x0 DUP1 REVERT JUMPDEST PUSH2 0x60 PUSH1 0x4 DUP1 CALLDATASIZE SUB DUP2 ADD SWAP1 PUSH2 0x5B SWAP2 SWAP1 PUSH2 0x20C JUMP JUMPDEST PUSH2 0xA2 JUMP JUMPDEST STOP JUMPDEST PUSH2 0x6A PUSH2 0x159 JUMP JUMPDEST PUSH1 0x40 MLOAD PUSH2 0x77 SWAP2 SWAP1 PUSH2 0x255 JUMP JUMPDEST PUSH1 0x40 MLOAD DUP1 SWAP2 SUB SWAP1 RETURN JUMPDEST PUSH2 0x88 PUSH2 0x17D JUMP JUMPDEST PUSH1 0x40 MLOAD PUSH2 0x99 SWAP6 SWAP5 SWAP4 SWAP3 SWAP2 SWAP1 PUSH2 0x2BD JUMP JUMPDEST PUSH1 0x40 MLOAD DUP1 SWAP2 SUB SWAP1 RETURN JUMPDEST PUSH1 0x1 DUP1 PUSH1 0x0 DUP3 DUP3 DUP3 SWAP1 SLOAD SWAP1 PUSH2 0x100 EXP SWAP1 DIV PUSH10 0xFFFFFFFFFFFFFFFFFFFF AND PUSH2 0xC9 SWAP2 SWAP1 PUSH2 0x33F JUMP JUMPDEST SWAP3 POP PUSH2 0x100 EXP DUP2 SLOAD DUP2 PUSH10 0xFFFFFFFFFFFFFFFFFFFF MUL NOT AND SWAP1 DUP4 PUSH10 0xFFFFFFFFFFFFFFFFFFFF AND MUL OR SWAP1 SSTORE POP DUP1 PUSH1 0x0 DUP2 SWAP1 SSTORE POP TIMESTAMP PUSH1 0x2 DUP2 SWAP1 SSTORE POP PUSH32 0x5B196CCF306F345DE8745DFFEAF185F4CAFE74A334E2B2466D04C880071533B9 DUP2 PUSH1 0x1 PUSH1 0x0 SWAP1 SLOAD SWAP1 PUSH2 0x100 EXP SWAP1 DIV PUSH10 0xFFFFFFFFFFFFFFFFFFFF AND PUSH1 0x2 SLOAD PUSH1 0x40 MLOAD PUSH2 0x14E SWAP4 SWAP3 SWAP2 SWAP1 PUSH2 0x37D JUMP JUMPDEST PUSH1 0x40 MLOAD DUP1 SWAP2 SUB SWAP1 LOG1 POP JUMP JUMPDEST PUSH32 0x0 DUP2 JUMP JUMPDEST PUSH1 0x0 DUP1 PUSH1 0x0 DUP1 PUSH1 0x0 PUSH1 0x1 PUSH1 0x0 SWAP1 SLOAD SWAP1 PUSH2 0x100 EXP SWAP1 DIV PUSH10 0xFFFFFFFFFFFFFFFFFFFF AND PUSH1 0x0 SLOAD PUSH1 0x2 SLOAD PUSH1 0x2 SLOAD PUSH1 0x1 PUSH1 0x0 SWAP1 SLOAD SWAP1 PUSH2 0x100 EXP SWAP1 DIV PUSH10 0xFFFFFFFFFFFFFFFFFFFF AND SWAP5 POP SWAP5 POP SWAP5 POP SWAP5 POP SWAP5 POP SWAP1 SWAP2 SWAP3 SWAP4 SWAP5 JUMP JUMPDEST PUSH1 0x0 DUP1 REVERT JUMPDEST PUSH1 0x0 DUP2 SWAP1 POP SWAP2 SWAP1 POP JUMP JUMPDEST PUSH2 0x1E9 DUP2 PUSH2 0x1D6 JUMP JUMPDEST DUP2 EQ PUSH2 0x1F4 JUMPI PUSH1 0x0 DUP1 REVERT JUMPDEST POP JUMP JUMPDEST PUSH1 0x0 DUP2 CALLDATALOAD SWAP1 POP PUSH2 0x206 DUP2 PUSH2 0x1E0 JUMP JUMPDEST SWAP3 SWAP2 POP POP JUMP JUMPDEST PUSH1 0x0 PUSH1 0x20 DUP3 DUP5 SUB SLT ISZERO PUSH2 0x222 JUMPI PUSH2 0x221 PUSH2 0x1D1 JUMP JUMPDEST JUMPDEST PUSH1 0x0 PUSH2 0x230 DUP5 DUP3 DUP6 ADD PUSH2 0x1F7 JUMP JUMPDEST SWAP2 POP POP SWAP3 SWAP2 POP POP JUMP JUMPDEST PUSH1 0x0 PUSH1 0xFF DUP3 AND SWAP1 POP SWAP2 SWAP1 POP JUMP JUMPDEST PUSH2 0x24F DUP2 PUSH2 0x239 JUMP JUMPDEST DUP3 MSTORE POP POP JUMP JUMPDEST PUSH1 0x0 PUSH1 0x20 DUP3 ADD SWAP1 POP PUSH2 0x26A PUSH1 0x0 DUP4 ADD DUP5 PUSH2 0x246 JUMP JUMPDEST SWAP3 SWAP2 POP POP JUMP JUMPDEST PUSH1 0x0 PUSH10 0xFFFFFFFFFFFFFFFFFFFF DUP3 AND SWAP1 POP SWAP2 SWAP1 POP JUMP JUMPDEST PUSH2 0x28F DUP2 PUSH2 0x270 JUMP JUMPDEST DUP3 MSTORE POP POP JUMP JUMPDEST PUSH2 0x29E DUP2 PUSH2 0x1D6 JUMP JUMPDEST DUP3 MSTORE POP POP JUMP JUMPDEST PUSH1 0x0 DUP2 SWAP1 POP SWAP2 SWAP1 POP JUMP JUMPDEST PUSH2 0x2B7 DUP2 PUSH2 0x2A4 JUMP JUMPDEST DUP3 MSTORE POP POP JUMP JUMPDEST PUSH1 0x0 PUSH1 0xA0 DUP3 ADD SWAP1 POP PUSH2 0x2D2 PUSH1 0x0 DUP4 ADD DUP9 PUSH2 0x286 JUMP JUMPDEST PUSH2 0x2DF PUSH1 0x20 DUP4 ADD DUP8 PUSH2 0x295 JUMP JUMPDEST PUSH2 0x2EC PUSH1 0x40 DUP4 ADD DUP7 PUSH2 0x2AE JUMP JUMPDEST PUSH2 0x2F9 PUSH1 0x60 DUP4 ADD DUP6 PUSH2 0x2AE JUMP JUMPDEST PUSH2 0x306 PUSH1 0x80 DUP4 ADD DUP5 PUSH2 0x286 JUMP JUMPDEST SWAP7 SWAP6 POP POP POP POP POP POP JUMP JUMPDEST PUSH32 0x4E487B7100000000000000000000000000000000000000000000000000000000 PUSH1 0x0 MSTORE PUSH1 0x11 PUSH1 0x4 MSTORE PUSH1 0x24 PUSH1 0x0 REVERT JUMPDEST PUSH1 0x0 PUSH2 0x34A DUP3 PUSH2 0x270 JUMP JUMPDEST SWAP2 POP PUSH2 0x355 DUP4 PUSH2 0x270 JUMP JUMPDEST SWAP3 POP DUP3 DUP3 ADD SWAP1 POP PUSH10 0xFFFFFFFFFFFFFFFFFFFF DUP2 GT ISZERO PUSH2 0x377 JUMPI PUSH2 0x376 PUSH2 0x310 JUMP JUMPDEST JUMPDEST SWAP3 SWAP2 POP POP JUMP JUMPDEST PUSH1 0x0 PUSH1 0x60 DUP3 ADD SWAP1 POP PUSH2 0x392 PUSH1 0x0 DUP4 ADD DUP7 PUSH2 0x295 JUMP JUMPDEST PUSH2 0x39F PUSH1 0x20 DUP4 ADD DUP6 PUSH2 0x286 JUMP JUMPDEST PUSH2 0x3AC PUSH1 0x40 DUP4 ADD DUP5 PUSH2 0x2AE JUMP JUMPDEST SWAP5 SWAP4 POP POP POP POP JUMP INVALID LOG2 PUSH5 0x6970667358 0x22 SLT KECCAK256 PUSH22 0x6CE2086AF5A416BB5AAF3358F32F843AE3F2E89100D0 0xBF PUSH15 0xB675D65D3D095964736F6C63430008 EQ STOP CALLER "},"methodIdentifiers":{"decimals()":"313ce567","latestRoundData()":"feaf968c","setLatestAnswer(int256)":"04ea97b0"}}}}}